{
  "contractName": "Auction",
  "abi": [
    {
      "constant": true,
      "inputs": [],
      "name": "isLinked",
      "outputs": [
        {
          "name": "",
          "type": "bool"
        }
      ],
      "payable": false,
      "stateMutability": "view",
      "type": "function"
    },
    {
      "constant": true,
      "inputs": [
        {
          "name": "_address",
          "type": "address"
        }
      ],
      "name": "isSharedWith",
      "outputs": [
        {
          "name": "",
          "type": "bool"
        }
      ],
      "payable": false,
      "stateMutability": "view",
      "type": "function"
    },
    {
      "constant": false,
      "inputs": [
        {
          "name": "_address",
          "type": "address"
        },
        {
          "name": "_isShared",
          "type": "bool"
        },
        {
          "name": "_linked",
          "type": "bool"
        }
      ],
      "name": "setSharingWith",
      "outputs": [],
      "payable": false,
      "stateMutability": "nonpayable",
      "type": "function"
    },
    {
      "constant": false,
      "inputs": [],
      "name": "acceptOwnership",
      "outputs": [],
      "payable": false,
      "stateMutability": "nonpayable",
      "type": "function"
    },
    {
      "constant": true,
      "inputs": [],
      "name": "owner",
      "outputs": [
        {
          "name": "",
          "type": "address"
        }
      ],
      "payable": false,
      "stateMutability": "view",
      "type": "function"
    },
    {
      "constant": false,
      "inputs": [
        {
          "name": "_address",
          "type": "address"
        }
      ],
      "name": "setSettingsContract",
      "outputs": [],
      "payable": false,
      "stateMutability": "nonpayable",
      "type": "function"
    },
    {
      "constant": true,
      "inputs": [],
      "name": "newOwner",
      "outputs": [
        {
          "name": "",
          "type": "address"
        }
      ],
      "payable": false,
      "stateMutability": "view",
      "type": "function"
    },
    {
      "constant": false,
      "inputs": [
        {
          "name": "_address",
          "type": "address"
        }
      ],
      "name": "setWildaloERC721Contract",
      "outputs": [],
      "payable": false,
      "stateMutability": "nonpayable",
      "type": "function"
    },
    {
      "constant": false,
      "inputs": [
        {
          "name": "_from",
          "type": "address"
        },
        {
          "name": "_tokenId",
          "type": "uint256"
        },
        {
          "name": "_data",
          "type": "bytes"
        }
      ],
      "name": "onERC721Received",
      "outputs": [
        {
          "name": "",
          "type": "bytes4"
        }
      ],
      "payable": false,
      "stateMutability": "nonpayable",
      "type": "function"
    },
    {
      "constant": false,
      "inputs": [
        {
          "name": "_newOwner",
          "type": "address"
        }
      ],
      "name": "transferOwnership",
      "outputs": [],
      "payable": false,
      "stateMutability": "nonpayable",
      "type": "function"
    },
    {
      "anonymous": false,
      "inputs": [
        {
          "indexed": true,
          "name": "_from",
          "type": "address"
        },
        {
          "indexed": true,
          "name": "_to",
          "type": "address"
        }
      ],
      "name": "OwnershipTransferred",
      "type": "event"
    },
    {
      "constant": true,
      "inputs": [
        {
          "name": "_cardId",
          "type": "uint256"
        }
      ],
      "name": "getAuctionInfo",
      "outputs": [
        {
          "name": "",
          "type": "address"
        },
        {
          "name": "",
          "type": "uint256"
        },
        {
          "name": "",
          "type": "uint256"
        },
        {
          "name": "",
          "type": "uint256"
        },
        {
          "name": "",
          "type": "uint256"
        },
        {
          "name": "",
          "type": "uint256"
        }
      ],
      "payable": false,
      "stateMutability": "view",
      "type": "function"
    },
    {
      "constant": true,
      "inputs": [
        {
          "name": "_cardId",
          "type": "uint256"
        }
      ],
      "name": "getOwnerOfAuctionFromCardId",
      "outputs": [
        {
          "name": "",
          "type": "address"
        }
      ],
      "payable": false,
      "stateMutability": "view",
      "type": "function"
    },
    {
      "constant": false,
      "inputs": [
        {
          "name": "_owner",
          "type": "address"
        },
        {
          "name": "_currency",
          "type": "uint256"
        },
        {
          "name": "_cardId",
          "type": "uint256"
        },
        {
          "name": "_startPrice",
          "type": "uint256"
        },
        {
          "name": "_endPrice",
          "type": "uint256"
        },
        {
          "name": "_duration",
          "type": "uint256"
        }
      ],
      "name": "createAuction",
      "outputs": [],
      "payable": false,
      "stateMutability": "nonpayable",
      "type": "function"
    },
    {
      "constant": false,
      "inputs": [
        {
          "name": "_owner",
          "type": "address"
        },
        {
          "name": "_cardId",
          "type": "uint256"
        }
      ],
      "name": "cancelAuction",
      "outputs": [],
      "payable": false,
      "stateMutability": "nonpayable",
      "type": "function"
    },
    {
      "constant": false,
      "inputs": [
        {
          "name": "_bidder",
          "type": "address"
        },
        {
          "name": "_cardId",
          "type": "uint256"
        }
      ],
      "name": "bid",
      "outputs": [],
      "payable": false,
      "stateMutability": "nonpayable",
      "type": "function"
    },
    {
      "constant": true,
      "inputs": [
        {
          "name": "_cardId",
          "type": "uint256"
        }
      ],
      "name": "getAuctionInfoForBid",
      "outputs": [
        {
          "name": "",
          "type": "address"
        },
        {
          "name": "",
          "type": "uint256"
        },
        {
          "name": "",
          "type": "uint256"
        }
      ],
      "payable": false,
      "stateMutability": "view",
      "type": "function"
    }
  ],
  "bytecode": "0x6080604052336000806101000a81548173ffffffffffffffffffffffffffffffffffffffff021916908373ffffffffffffffffffffffffffffffffffffffff1602179055506001600260003373ffffffffffffffffffffffffffffffffffffffff1673ffffffffffffffffffffffffffffffffffffffff16815260200190815260200160002060006101000a81548160ff02191690831515021790555061194e806100ab6000396000f3006080604052600436106100e6576000357c0100000000000000000000000000000000000000000000000000000000900463ffffffff16806309fa1f90146100eb57806319168e491461011a57806338eef04714610195578063558fe357146101f05780635787ab711461024b57806359d667a5146102b8578063791bb4ef1461030557806379ba50971461037a578063859b97fe146103915780638da5cb5b146103de57806396d7529a14610435578063d4ee1d9014610478578063e8dd2054146104cf578063f0b9e5ba14610512578063f2fde38b146105f7578063fc3fc4ed1461063a575b600080fd5b3480156100f757600080fd5b506101006106ca565b604051808215151515815260200191505060405180910390f35b34801561012657600080fd5b50610145600480360381019080803590602001909291905050506106e1565b604051808473ffffffffffffffffffffffffffffffffffffffff1673ffffffffffffffffffffffffffffffffffffffff168152602001838152602001828152602001935050505060405180910390f35b3480156101a157600080fd5b506101d6600480360381019080803573ffffffffffffffffffffffffffffffffffffffff1690602001909291905050506107e0565b604051808215151515815260200191505060405180910390f35b3480156101fc57600080fd5b50610249600480360381019080803573ffffffffffffffffffffffffffffffffffffffff169060200190929190803515159060200190929190803515159060200190929190505050610836565b005b34801561025757600080fd5b5061027660048036038101908080359060200190929190505050610a36565b604051808273ffffffffffffffffffffffffffffffffffffffff1673ffffffffffffffffffffffffffffffffffffffff16815260200191505060405180910390f35b3480156102c457600080fd5b50610303600480360381019080803573ffffffffffffffffffffffffffffffffffffffff16906020019092919080359060200190929190505050610aa7565b005b34801561031157600080fd5b50610378600480360381019080803573ffffffffffffffffffffffffffffffffffffffff1690602001909291908035906020019092919080359060200190929190803590602001909291908035906020019092919080359060200190929190505050610c4b565b005b34801561038657600080fd5b5061038f610ef4565b005b34801561039d57600080fd5b506103dc600480360381019080803573ffffffffffffffffffffffffffffffffffffffff169060200190929190803590602001909291905050506110fc565b005b3480156103ea57600080fd5b506103f3611264565b604051808273ffffffffffffffffffffffffffffffffffffffff1673ffffffffffffffffffffffffffffffffffffffff16815260200191505060405180910390f35b34801561044157600080fd5b50610476600480360381019080803573ffffffffffffffffffffffffffffffffffffffff169060200190929190505050611289565b005b34801561048457600080fd5b5061048d611391565b604051808273ffffffffffffffffffffffffffffffffffffffff1673ffffffffffffffffffffffffffffffffffffffff16815260200191505060405180910390f35b3480156104db57600080fd5b50610510600480360381019080803573ffffffffffffffffffffffffffffffffffffffff1690602001909291905050506113b7565b005b34801561051e57600080fd5b506105a3600480360381019080803573ffffffffffffffffffffffffffffffffffffffff16906020019092919080359060200190929190803590602001908201803590602001908080601f01602080910402602001604051908101604052809392919081815260200183838082843782019150505050505091929192905050506114bf565b60405180827bffffffffffffffffffffffffffffffffffffffffffffffffffffffff19167bffffffffffffffffffffffffffffffffffffffffffffffffffffffff1916815260200191505060405180910390f35b34801561060357600080fd5b50610638600480360381019080803573ffffffffffffffffffffffffffffffffffffffff1690602001909291905050506114ee565b005b34801561064657600080fd5b50610665600480360381019080803590602001909291905050506115f6565b604051808773ffffffffffffffffffffffffffffffffffffffff1673ffffffffffffffffffffffffffffffffffffffff168152602001868152602001858152602001848152602001838152602001828152602001965050505050505060405180910390f35b6000600360009054906101000a900460ff16905090565b600080600080600080600080600080600560008c81526020019081526020016000206003015442039650600560008c8152602001908152602001600020600401549550600560008c8152602001908152602001600020600501549450600560008c81526020019081526020016000206006015493508387121515610763578396505b85850392508387840281151561077557fe5b0591508186019050600560008c815260200190815260200160002060000160009054906101000a900473ffffffffffffffffffffffffffffffffffffffff1681600560008e815260200190815260200160002060010154995099509950505050505050509193909250565b6000600260008373ffffffffffffffffffffffffffffffffffffffff1673ffffffffffffffffffffffffffffffffffffffff16815260200190815260200160002060009054906101000a900460ff169050919050565b6000809054906101000a900473ffffffffffffffffffffffffffffffffffffffff1673ffffffffffffffffffffffffffffffffffffffff163373ffffffffffffffffffffffffffffffffffffffff161415156108fa576040517f08c379a000000000000000000000000000000000000000000000000000000000815260040180806020018281038252600b8152602001807f4f776e65643a206572723100000000000000000000000000000000000000000081525060200191505060405180910390fd5b60001515600360009054906101000a900460ff16151514151561091c57600080fd5b8273ffffffffffffffffffffffffffffffffffffffff163373ffffffffffffffffffffffffffffffffffffffff16141515156109c0576040517f08c379a000000000000000000000000000000000000000000000000000000000815260040180806020018281038252600c8152602001807f5368617265643a2065727232000000000000000000000000000000000000000081525060200191505060405180910390fd5b80600360006101000a81548160ff02191690831515021790555081600260008573ffffffffffffffffffffffffffffffffffffffff1673ffffffffffffffffffffffffffffffffffffffff16815260200190815260200160002060006101000a81548160ff021916908315150217905550505050565b6000806005600084815260200190815260200160002060020154148015610a5e575060008214155b1515610a6957600080fd5b6005600083815260200190815260200160002060000160009054906101000a900473ffffffffffffffffffffffffffffffffffffffff169050919050565b6000610ab2336107e0565b1515610b26576040517f08c379a000000000000000000000000000000000000000000000000000000000815260040180806020018281038252600c8152602001807f5368617265643a2065727231000000000000000000000000000000000000000081525060200191505060405180910390fd5b6005600083815260200190815260200160002060000160009054906101000a900473ffffffffffffffffffffffffffffffffffffffff169050610b698183611710565b600360019054906101000a900473ffffffffffffffffffffffffffffffffffffffff1673ffffffffffffffffffffffffffffffffffffffff1663095ea7b384846040518363ffffffff167c0100000000000000000000000000000000000000000000000000000000028152600401808373ffffffffffffffffffffffffffffffffffffffff1673ffffffffffffffffffffffffffffffffffffffff16815260200182815260200192505050600060405180830381600087803b158015610c2e57600080fd5b505af1158015610c42573d6000803e3d6000fd5b50505050505050565b610c54336107e0565b1515610cc8576040517f08c379a000000000000000000000000000000000000000000000000000000000815260040180806020018281038252600c8152602001807f5368617265643a2065727231000000000000000000000000000000000000000081525060200191505060405180910390fd5b8573ffffffffffffffffffffffffffffffffffffffff16600360019054906101000a900473ffffffffffffffffffffffffffffffffffffffff1673ffffffffffffffffffffffffffffffffffffffff16636352211e866040518263ffffffff167c010000000000000000000000000000000000000000000000000000000002815260040180828152602001915050602060405180830381600087803b158015610d7057600080fd5b505af1158015610d84573d6000803e3d6000fd5b505050506040513d6020811015610d9a57600080fd5b810190808051906020019092919050505073ffffffffffffffffffffffffffffffffffffffff16141515610dcd57600080fd5b610ddb8686868686866117f1565b600360019054906101000a900473ffffffffffffffffffffffffffffffffffffffff1673ffffffffffffffffffffffffffffffffffffffff166342842e0e8730876040518463ffffffff167c0100000000000000000000000000000000000000000000000000000000028152600401808473ffffffffffffffffffffffffffffffffffffffff1673ffffffffffffffffffffffffffffffffffffffff1681526020018373ffffffffffffffffffffffffffffffffffffffff1673ffffffffffffffffffffffffffffffffffffffff1681526020018281526020019350505050600060405180830381600087803b158015610ed457600080fd5b505af1158015610ee8573d6000803e3d6000fd5b50505050505050505050565b600160009054906101000a900473ffffffffffffffffffffffffffffffffffffffff1673ffffffffffffffffffffffffffffffffffffffff163373ffffffffffffffffffffffffffffffffffffffff16141515610fb9576040517f08c379a000000000000000000000000000000000000000000000000000000000815260040180806020018281038252600b8152602001807f4f776e65643a206572723200000000000000000000000000000000000000000081525060200191505060405180910390fd5b600160009054906101000a900473ffffffffffffffffffffffffffffffffffffffff1673ffffffffffffffffffffffffffffffffffffffff166000809054906101000a900473ffffffffffffffffffffffffffffffffffffffff1673ffffffffffffffffffffffffffffffffffffffff167f8be0079c531659141344cd1fd0a4f28419497f9722a3daafe3b4186f6b6457e060405160405180910390a3600160009054906101000a900473ffffffffffffffffffffffffffffffffffffffff166000806101000a81548173ffffffffffffffffffffffffffffffffffffffff021916908373ffffffffffffffffffffffffffffffffffffffff1602179055506000600160006101000a81548173ffffffffffffffffffffffffffffffffffffffff021916908373ffffffffffffffffffffffffffffffffffffffff160217905550565b611105336107e0565b1515611179576040517f08c379a000000000000000000000000000000000000000000000000000000000815260040180806020018281038252600c8152602001807f5368617265643a2065727231000000000000000000000000000000000000000081525060200191505060405180910390fd5b6111838282611710565b600360019054906101000a900473ffffffffffffffffffffffffffffffffffffffff1673ffffffffffffffffffffffffffffffffffffffff1663095ea7b383836040518363ffffffff167c0100000000000000000000000000000000000000000000000000000000028152600401808373ffffffffffffffffffffffffffffffffffffffff1673ffffffffffffffffffffffffffffffffffffffff16815260200182815260200192505050600060405180830381600087803b15801561124857600080fd5b505af115801561125c573d6000803e3d6000fd5b505050505050565b6000809054906101000a900473ffffffffffffffffffffffffffffffffffffffff1681565b6000809054906101000a900473ffffffffffffffffffffffffffffffffffffffff1673ffffffffffffffffffffffffffffffffffffffff163373ffffffffffffffffffffffffffffffffffffffff1614151561134d576040517f08c379a000000000000000000000000000000000000000000000000000000000815260040180806020018281038252600b8152602001807f4f776e65643a206572723100000000000000000000000000000000000000000081525060200191505060405180910390fd5b80600460006101000a81548173ffffffffffffffffffffffffffffffffffffffff021916908373ffffffffffffffffffffffffffffffffffffffff16021790555050565b600160009054906101000a900473ffffffffffffffffffffffffffffffffffffffff1681565b6000809054906101000a900473ffffffffffffffffffffffffffffffffffffffff1673ffffffffffffffffffffffffffffffffffffffff163373ffffffffffffffffffffffffffffffffffffffff1614151561147b576040517f08c379a000000000000000000000000000000000000000000000000000000000815260040180806020018281038252600b8152602001807f4f776e65643a206572723100000000000000000000000000000000000000000081525060200191505060405180910390fd5b80600360016101000a81548173ffffffffffffffffffffffffffffffffffffffff021916908373ffffffffffffffffffffffffffffffffffffffff16021790555050565b600063f0b9e5ba7c01000000000000000000000000000000000000000000000000000000000290509392505050565b6000809054906101000a900473ffffffffffffffffffffffffffffffffffffffff1673ffffffffffffffffffffffffffffffffffffffff163373ffffffffffffffffffffffffffffffffffffffff161415156115b2576040517f08c379a000000000000000000000000000000000000000000000000000000000815260040180806020018281038252600b8152602001807f4f776e65643a206572723100000000000000000000000000000000000000000081525060200191505060405180910390fd5b80600160006101000a81548173ffffffffffffffffffffffffffffffffffffffff021916908373ffffffffffffffffffffffffffffffffffffffff16021790555050565b6000806000806000806000806000806000808c600560008f81526020019081526020016000206002015414801561162e575060008d14155b151561163957600080fd5b600560008e815260200190815260200160002060000160009054906101000a900473ffffffffffffffffffffffffffffffffffffffff169550600560008e8152602001908152602001600020600101549450600560008e8152602001908152602001600020600301549350600560008e8152602001908152602001600020600401549250600560008e8152602001908152602001600020600501549150600560008e81526020019081526020016000206006015490508585858585859b509b509b509b509b509b5050505050505091939550919395565b8173ffffffffffffffffffffffffffffffffffffffff166005600083815260200190815260200160002060000160009054906101000a900473ffffffffffffffffffffffffffffffffffffffff1673ffffffffffffffffffffffffffffffffffffffff1614151561178057600080fd5b60056000828152602001908152602001600020600080820160006101000a81549073ffffffffffffffffffffffffffffffffffffffff021916905560018201600090556002820160009055600382016000905560048201600090556005820160009055600682016000905550505050565b60006005600086815260200190815260200160002060020154148015611818575060008414155b151561182357600080fd5b856005600086815260200190815260200160002060000160006101000a81548173ffffffffffffffffffffffffffffffffffffffff021916908373ffffffffffffffffffffffffffffffffffffffff1602179055508460056000868152602001908152602001600020600101819055508360056000868152602001908152602001600020600201819055504260056000868152602001908152602001600020600301819055508260056000868152602001908152602001600020600401819055508160056000868152602001908152602001600020600501819055508060056000868152602001908152602001600020600601819055505050505050505600a165627a7a72305820c604ce04cfd55a398b5865282cf39e497fbb8149ba9383001ba86772bf85ed720029",
  "source": "pragma solidity ^0.4.25;\r\n\r\nimport \"./Interfaces.sol\";\r\nimport \"./Helpers.sol\";\r\nimport \"./Enums.sol\";\r\n\r\nimport \"./WildaloERC721.sol\";\r\n\r\nimport \"./Libs.sol\";\r\n\r\ncontract Auction is IAuction, Shared,\r\n    UsingWildaloERC721,\r\n    ERC721Receiver,\r\n    UsingSettings,\r\n    UsingEnums {\r\n\r\n    using SafeMath for uint256;\r\n    using CardByteModifier for uint256;\r\n\r\n    struct Auction {\r\n        address owner;\r\n        uint256 currency;\r\n        uint256 cardId;\r\n        uint256 createdTime;\r\n        uint256 startPrice;\r\n        uint256 endPrice;\r\n        uint256 duration;\r\n    }\r\n\r\n    //cardId -> Auction\r\n    mapping(uint256 => Auction) auctions;\r\n\r\n    function getAuctionInfo(uint256 _cardId) public view\r\n        returns (address, uint256, uint256, uint256, uint256, uint256) {\r\n        require(auctions[_cardId].cardId == _cardId && _cardId != 0);\r\n        address owner = auctions[_cardId].owner;\r\n        uint256 currency = auctions[_cardId].currency;\r\n        uint256 createdTime = auctions[_cardId].createdTime;\r\n        uint256 startPrice = auctions[_cardId].startPrice;\r\n        uint256 endPrice = auctions[_cardId].endPrice;\r\n        uint256 duration = auctions[_cardId].duration;\r\n        return (owner, currency, createdTime, startPrice, endPrice, duration);\r\n    }\r\n\r\n    function getOwnerOfAuctionFromCardId(uint256 _cardId) public view returns (address) {\r\n        require(auctions[_cardId].cardId == 0 && _cardId != 0);\r\n        return auctions[_cardId].owner;\r\n    }\r\n\r\n    function _addAuction(\r\n        address _owner,\r\n        uint256 _currency,\r\n        uint256 _cardId,\r\n        uint256 _startPrice,\r\n        uint256 _endPrice,\r\n        uint256 _duration\r\n    ) internal {\r\n        // daha once uretilmemis ve 0 ile uretilemesin.\r\n        require(auctions[_cardId].cardId == 0 && _cardId != 0);\r\n\r\n        auctions[_cardId].owner = _owner;\r\n        auctions[_cardId].currency = _currency;\r\n        auctions[_cardId].cardId = _cardId;\r\n        auctions[_cardId].createdTime = now;\r\n        auctions[_cardId].startPrice = _startPrice;\r\n        auctions[_cardId].endPrice = _endPrice;\r\n        auctions[_cardId].duration = _duration;\r\n    }\r\n\r\n    function _removeAuction(address _owner, uint256 _cardId) internal {\r\n        //silinecek kardin sahibi kendisi olmali.\r\n        require(auctions[_cardId].owner == _owner);\r\n        delete auctions[_cardId];\r\n    }\r\n\r\n    //note: bu metodun cagrildigi yerde cagiran approve yapmali\r\n    function createAuction(\r\n        address _owner,\r\n        uint256 _currency,\r\n        uint256 _cardId,\r\n        uint256 _startPrice,\r\n        uint256 _endPrice,\r\n        uint256 _duration\r\n    ) __onlyShared public {\r\n        //is owner of card\r\n        require(nft.ownerOf(_cardId) == _owner);\r\n\r\n        _addAuction(_owner, _currency, _cardId, _startPrice, _endPrice, _duration);\r\n        nft.safeTransferFrom(_owner, address(this), _cardId);\r\n    }\r\n\r\n    function cancelAuction(address _owner, uint256 _cardId) __onlyShared public {\r\n        _removeAuction(_owner, _cardId);\r\n        nft.approve(_owner, _cardId);\r\n    }\r\n\r\n    function bid(address _bidder, uint256 _cardId) __onlyShared public {\r\n        address owner = auctions[_cardId].owner;\r\n        _removeAuction(owner, _cardId);\r\n        nft.approve(_bidder, _cardId);\r\n    }\r\n\r\n    function getAuctionInfoForBid(uint256 _cardId) \r\n        public view\r\n        returns (address, uint256, uint256)\r\n    {\r\n        //TODO: control EAuction is exists + method.\r\n\r\n        int256 secondsPassed = int256(now) -\r\n            int256(auctions[_cardId].createdTime);\r\n        int256 startPrice = int256(auctions[_cardId].startPrice);\r\n        int256 endPrice = int256(auctions[_cardId].endPrice);\r\n        int256 duration = int256(auctions[_cardId].duration);\r\n        if (secondsPassed >= duration) {\r\n            secondsPassed = duration;\r\n        }\r\n\r\n        // Starting price can be higher than ending price (and often is!), so\r\n        // this delta can be negative.\r\n        int256 totalPriceChange = endPrice - startPrice;\r\n\r\n        // This multiplication can't overflow, _secondsPassed will easily fit within\r\n        // 64-bits, and totalPriceChange will easily fit within 128-bits, their product\r\n        // will always fit within 256-bits.\r\n        int256 currentPriceChange = (totalPriceChange * secondsPassed) /\r\n            duration;\r\n\r\n        // currentPriceChange can be negative, but if so, will have a magnitude\r\n        // less that _startingPrice. Thus, this result will always end up positive.\r\n        int256 currentPrice = startPrice + currentPriceChange;\r\n\r\n        return (auctions[_cardId].owner, uint256(currentPrice), auctions[_cardId].currency);\r\n\r\n    }\r\n}\r\n",
  "sourcePath": "C:\\wildalo\\wildalo-contract-dev\\contracts\\Auction.sol",
  "compiler": {
    "name": "solc",
    "version": "0.4.25+commit.59dbf8f1.Emscripten.clang"
  },
  "schemaVersion": "3.4.5",
  "updatedAt": "2022-07-03T12:55:47.984Z",
  "networkType": "ethereum",
  "devdoc": {
    "methods": {}
  },
  "userdoc": {
    "methods": {}
  }
}