{
  "contractName": "Card",
  "abi": [
    {
      "constant": true,
      "inputs": [],
      "name": "isLinked",
      "outputs": [
        {
          "name": "",
          "type": "bool"
        }
      ],
      "payable": false,
      "stateMutability": "view",
      "type": "function"
    },
    {
      "constant": false,
      "inputs": [
        {
          "name": "_address",
          "type": "address"
        }
      ],
      "name": "setCardBaseContract",
      "outputs": [],
      "payable": false,
      "stateMutability": "nonpayable",
      "type": "function"
    },
    {
      "constant": true,
      "inputs": [
        {
          "name": "_address",
          "type": "address"
        }
      ],
      "name": "isSharedWith",
      "outputs": [
        {
          "name": "",
          "type": "bool"
        }
      ],
      "payable": false,
      "stateMutability": "view",
      "type": "function"
    },
    {
      "constant": false,
      "inputs": [
        {
          "name": "_address",
          "type": "address"
        },
        {
          "name": "_isShared",
          "type": "bool"
        },
        {
          "name": "_linked",
          "type": "bool"
        }
      ],
      "name": "setSharingWith",
      "outputs": [],
      "payable": false,
      "stateMutability": "nonpayable",
      "type": "function"
    },
    {
      "constant": false,
      "inputs": [],
      "name": "acceptOwnership",
      "outputs": [],
      "payable": false,
      "stateMutability": "nonpayable",
      "type": "function"
    },
    {
      "constant": true,
      "inputs": [],
      "name": "owner",
      "outputs": [
        {
          "name": "",
          "type": "address"
        }
      ],
      "payable": false,
      "stateMutability": "view",
      "type": "function"
    },
    {
      "constant": false,
      "inputs": [
        {
          "name": "_address",
          "type": "address"
        }
      ],
      "name": "setSettingsContract",
      "outputs": [],
      "payable": false,
      "stateMutability": "nonpayable",
      "type": "function"
    },
    {
      "constant": true,
      "inputs": [],
      "name": "newOwner",
      "outputs": [
        {
          "name": "",
          "type": "address"
        }
      ],
      "payable": false,
      "stateMutability": "view",
      "type": "function"
    },
    {
      "constant": false,
      "inputs": [
        {
          "name": "_address",
          "type": "address"
        }
      ],
      "name": "setWildaloERC721Contract",
      "outputs": [],
      "payable": false,
      "stateMutability": "nonpayable",
      "type": "function"
    },
    {
      "constant": false,
      "inputs": [
        {
          "name": "_newOwner",
          "type": "address"
        }
      ],
      "name": "transferOwnership",
      "outputs": [],
      "payable": false,
      "stateMutability": "nonpayable",
      "type": "function"
    },
    {
      "anonymous": false,
      "inputs": [
        {
          "indexed": true,
          "name": "_from",
          "type": "address"
        },
        {
          "indexed": true,
          "name": "_to",
          "type": "address"
        }
      ],
      "name": "OwnershipTransferred",
      "type": "event"
    },
    {
      "constant": false,
      "inputs": [
        {
          "name": "_cardsAddress",
          "type": "address"
        }
      ],
      "name": "setProbs",
      "outputs": [],
      "payable": false,
      "stateMutability": "nonpayable",
      "type": "function"
    },
    {
      "constant": false,
      "inputs": [
        {
          "name": "_to",
          "type": "address"
        },
        {
          "name": "_baseId",
          "type": "uint256"
        }
      ],
      "name": "mintCardWithBaseId",
      "outputs": [
        {
          "name": "",
          "type": "uint256"
        },
        {
          "name": "",
          "type": "uint256"
        }
      ],
      "payable": false,
      "stateMutability": "nonpayable",
      "type": "function"
    },
    {
      "constant": false,
      "inputs": [
        {
          "name": "_cardId",
          "type": "uint256"
        },
        {
          "name": "_burnedCardId",
          "type": "uint256"
        }
      ],
      "name": "upgradeCard",
      "outputs": [
        {
          "name": "",
          "type": "uint256"
        }
      ],
      "payable": false,
      "stateMutability": "nonpayable",
      "type": "function"
    },
    {
      "constant": true,
      "inputs": [
        {
          "name": "_cardId",
          "type": "uint256"
        }
      ],
      "name": "getCardInfo",
      "outputs": [
        {
          "name": "",
          "type": "uint256"
        }
      ],
      "payable": false,
      "stateMutability": "view",
      "type": "function"
    }
  ],
  "bytecode": "0x6080604052336000806101000a81548173ffffffffffffffffffffffffffffffffffffffff021916908373ffffffffffffffffffffffffffffffffffffffff1602179055506001600260003373ffffffffffffffffffffffffffffffffffffffff1673ffffffffffffffffffffffffffffffffffffffff16815260200190815260200160002060006101000a81548160ff021916908315150217905550612d13806100ab6000396000f3006080604052600436106100d0576000357c0100000000000000000000000000000000000000000000000000000000900463ffffffff16806309fa1f90146100d55780631380a34a1461010457806335f26ef81461016c57806338eef047146101af578063558fe3571461020a57806379ba5097146102655780638da5cb5b1461027c57806396d7529a146102d3578063970129be14610316578063bcbdcd6214610357578063c4a84412146103a2578063d4ee1d90146103e5578063e8dd20541461043c578063f2fde38b1461047f575b600080fd5b3480156100e157600080fd5b506100ea6104c2565b604051808215151515815260200191505060405180910390f35b34801561011057600080fd5b5061014f600480360381019080803573ffffffffffffffffffffffffffffffffffffffff169060200190929190803590602001909291905050506104d9565b604051808381526020018281526020019250505060405180910390f35b34801561017857600080fd5b506101ad600480360381019080803573ffffffffffffffffffffffffffffffffffffffff16906020019092919050505061056e565b005b3480156101bb57600080fd5b506101f0600480360381019080803573ffffffffffffffffffffffffffffffffffffffff169060200190929190505050610676565b604051808215151515815260200191505060405180910390f35b34801561021657600080fd5b50610263600480360381019080803573ffffffffffffffffffffffffffffffffffffffff1690602001909291908035151590602001909291908035151590602001909291905050506106cc565b005b34801561027157600080fd5b5061027a6108cc565b005b34801561028857600080fd5b50610291610ad4565b604051808273ffffffffffffffffffffffffffffffffffffffff1673ffffffffffffffffffffffffffffffffffffffff16815260200191505060405180910390f35b3480156102df57600080fd5b50610314600480360381019080803573ffffffffffffffffffffffffffffffffffffffff169060200190929190505050610af9565b005b34801561032257600080fd5b5061034160048036038101908080359060200190929190505050610c01565b6040518082815260200191505060405180910390f35b34801561036357600080fd5b5061038c6004803603810190808035906020019092919080359060200190929190505050610cd6565b6040518082815260200191505060405180910390f35b3480156103ae57600080fd5b506103e3600480360381019080803573ffffffffffffffffffffffffffffffffffffffff169060200190929190505050611f67565b005b3480156103f157600080fd5b506103fa61206f565b604051808273ffffffffffffffffffffffffffffffffffffffff1673ffffffffffffffffffffffffffffffffffffffff16815260200191505060405180910390f35b34801561044857600080fd5b5061047d600480360381019080803573ffffffffffffffffffffffffffffffffffffffff169060200190929190505050612095565b005b34801561048b57600080fd5b506104c0600480360381019080803573ffffffffffffffffffffffffffffffffffffffff16906020019092919050505061219d565b005b6000600360009054906101000a900460ff16905090565b6000806104e533610676565b1515610559576040517f08c379a000000000000000000000000000000000000000000000000000000000815260040180806020018281038252600c8152602001807f5368617265643a2065727231000000000000000000000000000000000000000081525060200191505060405180910390fd5b61056384846122a5565b915091509250929050565b6000809054906101000a900473ffffffffffffffffffffffffffffffffffffffff1673ffffffffffffffffffffffffffffffffffffffff163373ffffffffffffffffffffffffffffffffffffffff16141515610632576040517f08c379a000000000000000000000000000000000000000000000000000000000815260040180806020018281038252600b8152602001807f4f776e65643a206572723100000000000000000000000000000000000000000081525060200191505060405180910390fd5b80600360016101000a81548173ffffffffffffffffffffffffffffffffffffffff021916908373ffffffffffffffffffffffffffffffffffffffff16021790555050565b6000600260008373ffffffffffffffffffffffffffffffffffffffff1673ffffffffffffffffffffffffffffffffffffffff16815260200190815260200160002060009054906101000a900460ff169050919050565b6000809054906101000a900473ffffffffffffffffffffffffffffffffffffffff1673ffffffffffffffffffffffffffffffffffffffff163373ffffffffffffffffffffffffffffffffffffffff16141515610790576040517f08c379a000000000000000000000000000000000000000000000000000000000815260040180806020018281038252600b8152602001807f4f776e65643a206572723100000000000000000000000000000000000000000081525060200191505060405180910390fd5b60001515600360009054906101000a900460ff1615151415156107b257600080fd5b8273ffffffffffffffffffffffffffffffffffffffff163373ffffffffffffffffffffffffffffffffffffffff1614151515610856576040517f08c379a000000000000000000000000000000000000000000000000000000000815260040180806020018281038252600c8152602001807f5368617265643a2065727232000000000000000000000000000000000000000081525060200191505060405180910390fd5b80600360006101000a81548160ff02191690831515021790555081600260008573ffffffffffffffffffffffffffffffffffffffff1673ffffffffffffffffffffffffffffffffffffffff16815260200190815260200160002060006101000a81548160ff021916908315150217905550505050565b600160009054906101000a900473ffffffffffffffffffffffffffffffffffffffff1673ffffffffffffffffffffffffffffffffffffffff163373ffffffffffffffffffffffffffffffffffffffff16141515610991576040517f08c379a000000000000000000000000000000000000000000000000000000000815260040180806020018281038252600b8152602001807f4f776e65643a206572723200000000000000000000000000000000000000000081525060200191505060405180910390fd5b600160009054906101000a900473ffffffffffffffffffffffffffffffffffffffff1673ffffffffffffffffffffffffffffffffffffffff166000809054906101000a900473ffffffffffffffffffffffffffffffffffffffff1673ffffffffffffffffffffffffffffffffffffffff167f8be0079c531659141344cd1fd0a4f28419497f9722a3daafe3b4186f6b6457e060405160405180910390a3600160009054906101000a900473ffffffffffffffffffffffffffffffffffffffff166000806101000a81548173ffffffffffffffffffffffffffffffffffffffff021916908373ffffffffffffffffffffffffffffffffffffffff1602179055506000600160006101000a81548173ffffffffffffffffffffffffffffffffffffffff021916908373ffffffffffffffffffffffffffffffffffffffff160217905550565b6000809054906101000a900473ffffffffffffffffffffffffffffffffffffffff1681565b6000809054906101000a900473ffffffffffffffffffffffffffffffffffffffff1673ffffffffffffffffffffffffffffffffffffffff163373ffffffffffffffffffffffffffffffffffffffff16141515610bbd576040517f08c379a000000000000000000000000000000000000000000000000000000000815260040180806020018281038252600b8152602001807f4f776e65643a206572723100000000000000000000000000000000000000000081525060200191505060405180910390fd5b80600560006101000a81548173ffffffffffffffffffffffffffffffffffffffff021916908373ffffffffffffffffffffffffffffffffffffffff16021790555050565b6000600660009054906101000a900473ffffffffffffffffffffffffffffffffffffffff1673ffffffffffffffffffffffffffffffffffffffff16639507d39a836040518263ffffffff167c010000000000000000000000000000000000000000000000000000000002815260040180828152602001915050602060405180830381600087803b158015610c9457600080fd5b505af1158015610ca8573d6000803e3d6000fd5b505050506040513d6020811015610cbe57600080fd5b81019080805190602001909291905050509050919050565b6000606080606080600080610cea33610676565b1515610d5e576040517f08c379a000000000000000000000000000000000000000000000000000000000815260040180806020018281038252600c8152602001807f5368617265643a2065727231000000000000000000000000000000000000000081525060200191505060405180910390fd5b6004604051908082528060200260200182016040528015610d8e5781602001602082028038833980820191505090505b5095506002604051908082528060200260200182016040528015610dc15781602001602082028038833980820191505090505b5094506002604051908082528060200260200182016040528015610df45781602001602082028038833980820191505090505b5093506004604051908082528060200260200182016040528015610e275781602001602082028038833980820191505090505b50925060009150600660009054906101000a900473ffffffffffffffffffffffffffffffffffffffff1673ffffffffffffffffffffffffffffffffffffffff16639507d39a8a6040518263ffffffff167c010000000000000000000000000000000000000000000000000000000002815260040180828152602001915050602060405180830381600087803b158015610ebf57600080fd5b505af1158015610ed3573d6000803e3d6000fd5b505050506040513d6020811015610ee957600080fd5b8101908080519060200190929190505050866000815181101515610f0957fe5b9060200190602002018181525050600660009054906101000a900473ffffffffffffffffffffffffffffffffffffffff1673ffffffffffffffffffffffffffffffffffffffff16639507d39a896040518263ffffffff167c010000000000000000000000000000000000000000000000000000000002815260040180828152602001915050602060405180830381600087803b158015610fa857600080fd5b505af1158015610fbc573d6000803e3d6000fd5b505050506040513d6020811015610fd257600080fd5b8101908080519060200190929190505050866001815181101515610ff257fe5b9060200190602002018181525050600360019054906101000a900473ffffffffffffffffffffffffffffffffffffffff1673ffffffffffffffffffffffffffffffffffffffff1663cb2b757361105f88600081518110151561105057fe5b90602001906020020151612a45565b6040518263ffffffff167c010000000000000000000000000000000000000000000000000000000002815260040180828152602001915050602060405180830381600087803b1580156110b157600080fd5b505af11580156110c5573d6000803e3d6000fd5b505050506040513d60208110156110db57600080fd5b81019080805190602001909291905050508660028151811015156110fb57fe5b906020019060200201818152505061112a86600081518110151561111b57fe5b90602001906020020151612a66565b84600081518110151561113957fe5b906020019060200201818152505061116886600181518110151561115957fe5b90602001906020020151612a66565b84600181518110151561117757fe5b90602001906020020181815250506111a686600081518110151561119757fe5b90602001906020020151612a86565b8560008151811015156111b557fe5b90602001906020020181815250506111e48660018151811015156111d557fe5b90602001906020020151612a86565b8560018151811015156111f357fe5b906020019060200201818152505060008081111561120d57fe5b86600081518110151561121c57fe5b9060200190602002015114158015611257575060008081111561123b57fe5b86600181518110151561124a57fe5b9060200190602002015114155b151561126257600080fd5b600a600f81111561126f57fe5b84600081518110151561127e57fe5b9060200190602002015110151561129457600080fd5b600160038111156112a157fe5b8560008151811015156112b057fe5b90602001906020020151141561132957600160038111156112cd57fe5b8560018151811015156112dc57fe5b9060200190602002015114801561132257508360018151811015156112fd57fe5b9060200190602002015184600081518110151561131657fe5b90602001906020020151145b915061153c565b6002600381111561133657fe5b85600081518110151561134557fe5b9060200190602002015114156114345784600181518110151561136457fe5b9060200190602002015185600081518110151561137d57fe5b9060200190602002015114156113c75783600181518110151561139c57fe5b906020019060200201518460008151811015156113b557fe5b9060200190602002015114915061142f565b600160038111156113d457fe5b8560018151811015156113e357fe5b9060200190602002015114801561142c575083600181518110151561140457fe5b90602001906020020151600185600081518110151561141f57fe5b9060200190602002015101145b91505b61153b565b60038081111561144057fe5b85600081518110151561144f57fe5b90602001906020020151141561153a5784600181518110151561146e57fe5b9060200190602002015185600081518110151561148757fe5b9060200190602002015114156114d1578360018151811015156114a657fe5b906020019060200201518460008151811015156114bf57fe5b90602001906020020151149150611539565b600260038111156114de57fe5b8560018151811015156114ed57fe5b90602001906020020151148015611536575083600181518110151561150e57fe5b90602001906020020151600185600081518110151561152957fe5b9060200190602002015101145b91505b5b5b5b6001151582151514151561154f57600080fd5b600090505b60068110156116365761159360148202606403620fffff88600281518110151561157a57fe5b90602001906020020151612aa69092919063ffffffff16565b8660038151811015156115a257fe5b906020019060200201818152505061160c60148760038151811015156115c457fe5b906020019060200201518115156115d757fe5b0460148302606403620fffff8960008151811015156115f257fe5b90602001906020020151612abb909392919063ffffffff16565b86600081518110151561161b57fe5b90602001906020020181815250508080600101915050611554565b600090505b600a811015611719576116786008820260c00360ff88600281518110151561165f57fe5b90602001906020020151612aa69092919063ffffffff16565b86600381518110151561168757fe5b90602001906020020181815250506116ef60148760038151811015156116a957fe5b906020019060200201518115156116bc57fe5b046008830260c00360ff8960008151811015156116d557fe5b90602001906020020151612abb909392919063ffffffff16565b8660008151811015156116fe57fe5b9060200190602002018181525050808060010191505061163b565b612717896040518082815260200191505060405180910390206001900481151561173f57fe5b0683600081518110151561174f57fe5b90602001906020020181815250506127196007546040518082815260200191505060405180910390206001900481151561178557fe5b0683600181518110151561179557fe5b906020019060200201818152505061273560fa80438115156117b357fe5b0402406040518082600019166000191681526020019150506040518091039020600190048115156117e057fe5b068360028151811015156117f057fe5b906020019060200201818152505061273783600281518110151561181057fe5b9060200190602002015184600181518110151561182957fe5b9060200190602002015185600081518110151561184257fe5b9060200190602002015102026040518082815260200191505060405180910390206001900481151561187057fe5b0683600281518110151561188057fe5b9060200190602002018181525050600c83600281518110151561189f57fe5b906020019060200201518115156118b257fe5b068360038151811015156118c257fe5b906020019060200201818152505060068360038151811015156118e157fe5b906020019060200201511015611a835761193f601484600381518110151561190557fe5b9060200190602002015102606403620fffff88600281518110151561192657fe5b90602001906020020151612aa69092919063ffffffff16565b86600381518110151561194e57fe5b90602001906020020181815250506119d0601487600381518110151561197057fe5b9060200190602002015181151561198357fe5b04601485600381518110151561199557fe5b9060200190602002015102606403620fffff8960008151811015156119b657fe5b90602001906020020151612b53909392919063ffffffff16565b8660008151811015156119df57fe5b9060200190602002018181525050611a61600a876003815181101515611a0157fe5b90602001906020020151811515611a1457fe5b046014856003815181101515611a2657fe5b9060200190602002015102606403620fffff896000815181101515611a4757fe5b90602001906020020151612abb909392919063ffffffff16565b866000815181101515611a7057fe5b9060200190602002018181525050611d62565b61275f836002815181101515611a9557fe5b90602001906020020151846001815181101515611aae57fe5b90602001906020020151856000815181101515611ac757fe5b90602001906020020151020260405180828152602001915050604051809103902060019004811515611af557fe5b06836002815181101515611b0557fe5b9060200190602002018181525050600a836002815181101515611b2457fe5b90602001906020020151811515611b3757fe5b06836003815181101515611b4757fe5b9060200190602002018181525050600090505b600a811015611d6157600a836003815181101515611b7457fe5b906020019060200201518201811515611b8957fe5b06866003815181101515611b9957fe5b9060200190602002018181525050611bf36008846003815181101515611bbb57fe5b906020019060200201510260c00360ff886002815181101515611bda57fe5b90602001906020020151612aa69092919063ffffffff16565b866003815181101515611c0257fe5b90602001906020020181815250506000866003815181101515611c2157fe5b906020019060200201511115611d5457611ca3600a876003815181101515611c4557fe5b90602001906020020151811515611c5857fe5b046008856003815181101515611c6a57fe5b906020019060200201510260c00360ff896000815181101515611c8957fe5b90602001906020020151612b53909392919063ffffffff16565b866000815181101515611cb257fe5b9060200190602002018181525050611d326014876003815181101515611cd457fe5b90602001906020020151811515611ce757fe5b046008856003815181101515611cf957fe5b906020019060200201510260c00360ff896000815181101515611d1857fe5b90602001906020020151612abb909392919063ffffffff16565b866000815181101515611d4157fe5b9060200190602002018181525050611d61565b8080600101915050611b5a565b5b611da86001856000815181101515611d7657fe5b9060200190602002015101876000815181101515611d9057fe5b90602001906020020151612be990919063ffffffff16565b866000815181101515611db757fe5b9060200190602002018181525050600660009054906101000a900473ffffffffffffffffffffffffffffffffffffffff1673ffffffffffffffffffffffffffffffffffffffff16631ab06ee58a886000815181101515611e1357fe5b906020019060200201516040518363ffffffff167c01000000000000000000000000000000000000000000000000000000000281526004018083815260200182815260200192505050600060405180830381600087803b158015611e7657600080fd5b505af1158015611e8a573d6000803e3d6000fd5b50505050600660009054906101000a900473ffffffffffffffffffffffffffffffffffffffff1673ffffffffffffffffffffffffffffffffffffffff16631ab06ee58960006040518363ffffffff167c01000000000000000000000000000000000000000000000000000000000281526004018083815260200182815260200192505050600060405180830381600087803b158015611f2857600080fd5b505af1158015611f3c573d6000803e3d6000fd5b50505050856000815181101515611f4f57fe5b90602001906020020151965050505050505092915050565b6000809054906101000a900473ffffffffffffffffffffffffffffffffffffffff1673ffffffffffffffffffffffffffffffffffffffff163373ffffffffffffffffffffffffffffffffffffffff1614151561202b576040517f08c379a000000000000000000000000000000000000000000000000000000000815260040180806020018281038252600b8152602001807f4f776e65643a206572723100000000000000000000000000000000000000000081525060200191505060405180910390fd5b80600660006101000a81548173ffffffffffffffffffffffffffffffffffffffff021916908373ffffffffffffffffffffffffffffffffffffffff16021790555050565b600160009054906101000a900473ffffffffffffffffffffffffffffffffffffffff1681565b6000809054906101000a900473ffffffffffffffffffffffffffffffffffffffff1673ffffffffffffffffffffffffffffffffffffffff163373ffffffffffffffffffffffffffffffffffffffff16141515612159576040517f08c379a000000000000000000000000000000000000000000000000000000000815260040180806020018281038252600b8152602001807f4f776e65643a206572723100000000000000000000000000000000000000000081525060200191505060405180910390fd5b80600460006101000a81548173ffffffffffffffffffffffffffffffffffffffff021916908373ffffffffffffffffffffffffffffffffffffffff16021790555050565b6000809054906101000a900473ffffffffffffffffffffffffffffffffffffffff1673ffffffffffffffffffffffffffffffffffffffff163373ffffffffffffffffffffffffffffffffffffffff16141515612261576040517f08c379a000000000000000000000000000000000000000000000000000000000815260040180806020018281038252600b8152602001807f4f776e65643a206572723100000000000000000000000000000000000000000081525060200191505060405180910390fd5b80600160006101000a81548173ffffffffffffffffffffffffffffffffffffffff021916908373ffffffffffffffffffffffffffffffffffffffff16021790555050565b600080606060008060046040519080825280602002602001820160405280156122dd5781602001602082028038833980820191505090505b509250600360019054906101000a900473ffffffffffffffffffffffffffffffffffffffff1673ffffffffffffffffffffffffffffffffffffffff1663cb2b7573876040518263ffffffff167c010000000000000000000000000000000000000000000000000000000002815260040180828152602001915050602060405180830381600087803b15801561237157600080fd5b505af1158015612385573d6000803e3d6000fd5b505050506040513d602081101561239b57600080fd5b810190808051906020019092919050505091506007600081548092919060010191905055506123d38683612c0c90919063ffffffff16565b915061271787604051808273ffffffffffffffffffffffffffffffffffffffff1673ffffffffffffffffffffffffffffffffffffffff166c0100000000000000000000000002815260140191505060405180910390206001900481151561243657fe5b0683600081518110151561244657fe5b90602001906020020181815250506127196007546040518082815260200191505060405180910390206001900481151561247c57fe5b0683600181518110151561248c57fe5b906020019060200201818152505061273560fa80438115156124aa57fe5b0402406040518082600019166000191681526020019150506040518091039020600190048115156124d757fe5b068360028151811015156124e757fe5b9060200190602002018181525050600090505b60068110156126cd576127376001820184600281518110151561251957fe5b9060200190602002015185600181518110151561253257fe5b9060200190602002015186600081518110151561254b57fe5b906020019060200201510202026040518082815260200191505060405180910390206001900481151561257a57fe5b0683600281518110151561258a57fe5b9060200190602002018181525050601460298460028151811015156125ab57fe5b906020019060200201518115156125be57fe5b06036064018360028151811015156125d257fe5b906020019060200201818152505060648360028151811015156125f157fe5b9060200190602002015161261960148402606403620fffff86612aa69092919063ffffffff16565b0281151561262357fe5b0483600281518110151561263357fe5b9060200190602002018181525050620fffff83600281518110151561265457fe5b90602001906020020151111561268657620fffff83600281518110151561267757fe5b90602001906020020181815250505b6126be83600281518110151561269857fe5b9060200190602002015160148302606403620fffff85612c30909392919063ffffffff16565b915080806001019150506124fa565b600090505b600a8110156128a15761274d600182018460028151811015156126f157fe5b9060200190602002015185600181518110151561270a57fe5b9060200190602002015186600081518110151561272357fe5b906020019060200201510202026040518082815260200191505060405180910390206001900481151561275257fe5b0683600281518110151561276257fe5b90602001906020020181815250506014602984600281518110151561278357fe5b9060200190602002015181151561279657fe5b06036064018360028151811015156127aa57fe5b906020019060200201818152505060648360028151811015156127c957fe5b906020019060200201516127ef6008840260c00360ff86612aa69092919063ffffffff16565b028115156127f957fe5b0483600281518110151561280957fe5b9060200190602002018181525050620fffff83600281518110151561282a57fe5b90602001906020020151111561285c57620fffff83600281518110151561284d57fe5b90602001906020020181815250505b61289283600281518110151561286e57fe5b906020019060200201516008830260c00360ff85612c30909392919063ffffffff16565b915080806001019150506126d2565b600660009054906101000a900473ffffffffffffffffffffffffffffffffffffffff1673ffffffffffffffffffffffffffffffffffffffff16631ab06ee5600754846040518363ffffffff167c01000000000000000000000000000000000000000000000000000000000281526004018083815260200182815260200192505050600060405180830381600087803b15801561293c57600080fd5b505af1158015612950573d6000803e3d6000fd5b50505050600460009054906101000a900473ffffffffffffffffffffffffffffffffffffffff1673ffffffffffffffffffffffffffffffffffffffff166340c10f19886007546040518363ffffffff167c0100000000000000000000000000000000000000000000000000000000028152600401808373ffffffffffffffffffffffffffffffffffffffff1673ffffffffffffffffffffffffffffffffffffffff16815260200182815260200192505050600060405180830381600087803b158015612a1b57600080fd5b505af1158015612a2f573d6000803e3d6000fd5b5050505060075482945094505050509250929050565b6000612a5f60d861ffff84612aa69092919063ffffffff16565b9050919050565b6000612a7f60d0600f84612aa69092919063ffffffff16565b9050919050565b6000612a9f60cc600f84612aa69092919063ffffffff16565b9050919050565b60008183859060020a90041690509392505050565b600081848385889060020a9004160111151515612b40576040517f08c379a00000000000000000000000000000000000000000000000000000000081526004018080602001828103825260128152602001807f427974654d6f6469666965723a2065727232000000000000000000000000000081525060200191505060405180910390fd5b82849060020a0285019050949350505050565b6000838284879060020a90041610151515612bd6576040517f08c379a00000000000000000000000000000000000000000000000000000000081526004018080602001828103825260128152602001807f427974654d6f6469666965723a2065727233000000000000000000000000000081525060200191505060405180910390fd5b82849060020a0285039050949350505050565b6000612c048260d0600f86612c30909392919063ffffffff16565b905092915050565b6000612c288260d861ffff86612c30909392919063ffffffff16565b905092915050565b6000818411151515612caa576040517f08c379a00000000000000000000000000000000000000000000000000000000081526004018080602001828103825260128152602001807f427974654d6f6469666965723a2065727231000000000000000000000000000081525060200191505060405180910390fd5b82849060020a0283839060020a027fffffffffffffffffffffffffffffffffffffffffffffffffffffffffffffffff1886161790509493505050505600a165627a7a72305820a6e74acc73c817bcf3c1444cef850219b148416f86de79c38d36a0cec9d925800029",
  "source": "pragma solidity ^ 0.4.25;\r\n\r\nimport './Interfaces.sol';\r\nimport './Helpers.sol';\r\nimport './Enums.sol';\r\n\r\nimport './Libs.sol';\r\n\r\ncontract Card is ICard, Shared,\r\n    UsingCardBase,\r\n    UsingWildaloERC721,\r\n    UsingSettings,\r\n    UsingEnums {\r\n\r\n    using SafeMath for uint256;\r\n    using ByteModifier for uint256;\r\n    using CardByteModifier for uint256;\r\n\r\n    ICards Cards;\r\n    uint256 mintedCardCount;\r\n    \r\n    function setProbs(\r\n        address _cardsAddress\r\n        ) public __onlyOwner {\r\n\r\n        Cards = ICards(_cardsAddress);\r\n    }\r\n\r\n    //##########################################################\r\n    //                        CARD METHODS\r\n    //##########################################################\r\n    //baseId: basecard index. \r\n    //metadata -> card\r\n    //returns cardId\r\n    function _mintCardWithBaseId(address _to, uint256 _baseId) internal returns(uint256, uint256) {\r\n\r\n        //NOTE-1: zamana, kisiye ve isleme bagli degisim var. Bu sayede;\r\n        // farkli zamanlarda farkli kartlar uretilecektir(ayni kisi ve islem icin.).\r\n        // farkli islemlerde farkli kartlar uretilecektir.(ayni kisi ve ayni zaman dilimi icin.).\r\n        // farki kisiler icin farkli kartlar uretilecektir.(ayni zaman dilimi ve ayni islem icin.).\r\n        //NOTE-2: 250 block yaklasik 1 saat yapmakta. Bu sayede brute force ile paket secmek oldukca zahmetli.\r\n        uint256[] memory rnd = new uint256[](4); //last index: random\r\n        // set baseId of metadata\r\n        //metadata'nin alinmasi\r\n        uint256 metadata = CardBase.getMetadataFromBaseId(_baseId);\r\n        //0xFFFF0000000000000000000000000000000000000000000000000000000000000//baseid\r\n        //0x    F000000000000000000000000000000000000000000000000000000000000//lvl\r\n\r\n        mintedCardCount++; //new CardId\r\n\r\n        metadata = metadata.bSetBaseId(_baseId);\r\n    \r\n        rnd[0] = uint256(keccak256(_to)) % 10007; //kisiye bagli degisim\r\n        rnd[1] = uint256(keccak256(mintedCardCount)) % 10009; //isleme bagli degisim\r\n        //HP\r\n        rnd[2] =\r\n            uint256(keccak256(block.blockhash((block.number / 250) * 250))) %\r\n            10037; //zamana bagli degisim        \r\n\r\n        for(uint256 i = 0; i < 6; i++) {\r\n            rnd[2] = uint256(keccak256(rnd[0] * rnd[1] * rnd[2] * (i+1))) % 10039;\r\n            rnd[2] = 100 +((rnd[2] % 41) - 20);\r\n            rnd[2] = (metadata.bGet(100 - (i*20), 0xFFFFF) * rnd[2]) / 100;\r\n            if(rnd[2] > 1048575) {\r\n                rnd[2] = 1048575;\r\n            }        \r\n            metadata = metadata.bSet(rnd[2], 100 - (i*20), 0xFFFFF);\r\n        }\r\n\r\n        for(i = 0; i < 10; i++) {\r\n            rnd[2] = uint256(keccak256(rnd[0] * rnd[1] * rnd[2] * (i+1))) % 10061;\r\n            rnd[2] = 100 +((rnd[2] % 41) - 20);\r\n            rnd[2] = (metadata.bGet(192 - (i*8), 0xFF) * rnd[2]) / 100;\r\n            if(rnd[2] > 1048575) {\r\n                rnd[2] = 1048575;\r\n            }        \r\n            metadata = metadata.bSet(rnd[2], 192 - (i*8), 0xFF);\r\n        }  \r\n\r\n        Cards.set(mintedCardCount, metadata);\r\n        nft.mint(_to, mintedCardCount);\r\n\r\n        return (mintedCardCount, metadata);\r\n    }\r\n\r\n    function mintCardWithBaseId(address _to, uint256 _baseId) __onlyShared public returns(uint256, uint256) {\r\n        return _mintCardWithBaseId( _to, _baseId);\r\n    }\r\n\r\n    function upgradeCard(uint256 _cardId, uint256 _burnedCardId) __onlyShared public returns(uint256){\r\n\r\n        uint256[] memory cardArr = new uint256[](4);\r\n        uint256[] memory rarities = new uint256[](2);\r\n        uint256[] memory levels = new uint256[](2);\r\n        uint256[] memory rnd = new uint256[](4);\r\n        bool canUpdate = false;\r\n\r\n        cardArr[0] = Cards.get(_cardId);\r\n        cardArr[1] = Cards.get(_burnedCardId);\r\n        cardArr[2] = CardBase.getMetadataFromBaseId(cardArr[0].bGetBaseId());\r\n\r\n        //levels.\r\n        levels[0] = cardArr[0].bGetLevel();\r\n        levels[1] = cardArr[1].bGetLevel();\r\n\r\n        //rarities.\r\n        rarities[0] = cardArr[0].bGetRarity();\r\n        rarities[1] = cardArr[1].bGetRarity();\r\n\r\n        //cart'lar var mi\r\n        require((cardArr[0] != uint256(Data.NOT_EXIST)) && (cardArr[1] != uint256(Data.NOT_EXIST) ) );\r\n        //lvl check. max 10\r\n        require(levels[0] < uint256(Levels.LEVEL_10));\r\n\r\n        if(rarities[0] == uint256(Rarity.COMMON)) { //common 1\r\n        \r\n            //check same rarity\r\n            //lvl check. same lvl\r\n            canUpdate = (rarities[1] == uint256(Rarity.COMMON)) && (levels[0] == uint256(levels[1]));\r\n        } else if(rarities[0] == uint256(Rarity.RARE)) { //rare 2\r\n\r\n            //ayni rarity ise\r\n            if(rarities[0] == rarities[1]) {\r\n                //lvl check. same lvl\r\n                canUpdate = (levels[0] == levels[1]);\r\n            } else {\r\n                //yakilan common olmak zorunda.\r\n                //common lvl i+1 olmali.\r\n                canUpdate = (rarities[1] == uint256(Rarity.COMMON)) && (levels[0] + 1 == levels[1]);        \r\n            }\r\n        } else if(rarities[0] == uint256(Rarity.EXOTIC)){ //exotic 3\r\n\r\n            //ayni rarity ise\r\n            if(rarities[0] == rarities[1]) {\r\n                //lvl check. same lvl\r\n                canUpdate = (levels[0] == levels[1]);\r\n            } else {\r\n                //yakilan rare olmak zorunda.\r\n                //rare lvl i+1 olmali.\r\n                canUpdate = (rarities[1] == uint256(Rarity.RARE)) && (levels[0] + 1 == levels[1]);\r\n            }\r\n        }\r\n\r\n        require(canUpdate == true);\r\n\r\n        for(uint256 i = 0; i < 6; i++) {\r\n            cardArr[3] = cardArr[2].bGet(100 - (i*20), 0xFFFFF);\r\n            cardArr[0] = cardArr[0].bAdd(cardArr[3] / 20, 100 - (i*20), 0xFFFFF);\r\n        }\r\n\r\n        for(i = 0; i < 10; i++) {\r\n            cardArr[3] = cardArr[2].bGet(192 - (i*8), 0xFF);\r\n            cardArr[0] = cardArr[0].bAdd(cardArr[3] / 20, 192 - (i*8), 0xFF);\r\n        }\r\n\r\n        rnd[0] = uint256(keccak256(_cardId)) % 10007; //kisiye bagli degisim\r\n        rnd[1] = uint256(keccak256(mintedCardCount)) % 10009; //isleme bagli degisim\r\n        rnd[2] =\r\n            uint256(keccak256(block.blockhash((block.number / 250) * 250))) %\r\n            10037; //zamana bagli degisim        \r\n\r\n        rnd[2] = uint256(keccak256(rnd[0] * rnd[1] * rnd[2])) % 10039;\r\n\r\n        rnd[3] = rnd[2] % 12;\r\n        if(rnd[3] < 6) {\r\n           //primary stat update\r\n            cardArr[3] = cardArr[2].bGet(100 - rnd[3]*20, 0xFFFFF);\r\n            cardArr[0] = cardArr[0].bSub(cardArr[3]/20, 100 - rnd[3]*20, 0xFFFFF);\r\n            cardArr[0] = cardArr[0].bAdd(cardArr[3]/10, 100 - rnd[3]*20, 0xFFFFF);\r\n        } else {\r\n          //secondary stat update             \r\n            rnd[2] = uint256(keccak256(rnd[0] * rnd[1] * rnd[2])) % 10079;\r\n            rnd[3] = rnd[2] % 10;\r\n            for(i = 0; i < 10; i++) {\r\n                cardArr[3] = (i + rnd[3]) % 10;\r\n                cardArr[3] = cardArr[2].bGet(192 - rnd[3]*8, 0xFF);\r\n                if(cardArr[3] > 0) {\r\n                    cardArr[0] = cardArr[0].bSub(cardArr[3]/10, 192 - rnd[3]*8, 0xFF);\r\n                    cardArr[0] = cardArr[0].bAdd(cardArr[3]/20, 192 - rnd[3]*8, 0xFF);\r\n                    break;\r\n                }\r\n            }\r\n        }\r\n\r\n        cardArr[0] = cardArr[0].bSetLevel(levels[0] + 1);\r\n\r\n        Cards.set(_cardId, cardArr[0]);\r\n        Cards.set(_burnedCardId, 0);\r\n        return cardArr[0];\r\n    }\r\n\r\n    function getCardInfo(uint256 _cardId) public view returns(uint256) {\r\n        return Cards.get(_cardId);\r\n    }\r\n}",
  "sourcePath": "C:\\wildalo\\wildalo-contract-dev\\contracts\\Card.sol",
  "compiler": {
    "name": "solc",
    "version": "0.4.25+commit.59dbf8f1.Emscripten.clang"
  },
  "schemaVersion": "3.4.5",
  "updatedAt": "2022-07-03T12:55:47.968Z",
  "networkType": "ethereum",
  "devdoc": {
    "methods": {}
  },
  "userdoc": {
    "methods": {}
  }
}