{
  "contractName": "CardPackage",
  "abi": [
    {
      "constant": true,
      "inputs": [],
      "name": "isLinked",
      "outputs": [
        {
          "name": "",
          "type": "bool"
        }
      ],
      "payable": false,
      "stateMutability": "view",
      "type": "function"
    },
    {
      "constant": false,
      "inputs": [
        {
          "name": "_address",
          "type": "address"
        }
      ],
      "name": "setCardBaseContract",
      "outputs": [],
      "payable": false,
      "stateMutability": "nonpayable",
      "type": "function"
    },
    {
      "constant": true,
      "inputs": [
        {
          "name": "_address",
          "type": "address"
        }
      ],
      "name": "isSharedWith",
      "outputs": [
        {
          "name": "",
          "type": "bool"
        }
      ],
      "payable": false,
      "stateMutability": "view",
      "type": "function"
    },
    {
      "constant": false,
      "inputs": [
        {
          "name": "_address",
          "type": "address"
        },
        {
          "name": "_isShared",
          "type": "bool"
        },
        {
          "name": "_linked",
          "type": "bool"
        }
      ],
      "name": "setSharingWith",
      "outputs": [],
      "payable": false,
      "stateMutability": "nonpayable",
      "type": "function"
    },
    {
      "constant": false,
      "inputs": [],
      "name": "acceptOwnership",
      "outputs": [],
      "payable": false,
      "stateMutability": "nonpayable",
      "type": "function"
    },
    {
      "constant": true,
      "inputs": [],
      "name": "owner",
      "outputs": [
        {
          "name": "",
          "type": "address"
        }
      ],
      "payable": false,
      "stateMutability": "view",
      "type": "function"
    },
    {
      "constant": false,
      "inputs": [
        {
          "name": "_address",
          "type": "address"
        }
      ],
      "name": "setSettingsContract",
      "outputs": [],
      "payable": false,
      "stateMutability": "nonpayable",
      "type": "function"
    },
    {
      "constant": false,
      "inputs": [
        {
          "name": "_address",
          "type": "address"
        }
      ],
      "name": "setCardContract",
      "outputs": [],
      "payable": false,
      "stateMutability": "nonpayable",
      "type": "function"
    },
    {
      "constant": true,
      "inputs": [],
      "name": "newOwner",
      "outputs": [
        {
          "name": "",
          "type": "address"
        }
      ],
      "payable": false,
      "stateMutability": "view",
      "type": "function"
    },
    {
      "constant": true,
      "inputs": [],
      "name": "numberOfPackage",
      "outputs": [
        {
          "name": "",
          "type": "uint256"
        }
      ],
      "payable": false,
      "stateMutability": "view",
      "type": "function"
    },
    {
      "constant": false,
      "inputs": [
        {
          "name": "_newOwner",
          "type": "address"
        }
      ],
      "name": "transferOwnership",
      "outputs": [],
      "payable": false,
      "stateMutability": "nonpayable",
      "type": "function"
    },
    {
      "anonymous": false,
      "inputs": [
        {
          "indexed": true,
          "name": "_from",
          "type": "address"
        },
        {
          "indexed": true,
          "name": "_to",
          "type": "address"
        }
      ],
      "name": "OwnershipTransferred",
      "type": "event"
    },
    {
      "anonymous": false,
      "inputs": [
        {
          "indexed": true,
          "name": "to",
          "type": "address"
        },
        {
          "indexed": false,
          "name": "packageId",
          "type": "uint256"
        },
        {
          "indexed": false,
          "name": "cardId",
          "type": "uint256"
        },
        {
          "indexed": false,
          "name": "metadata",
          "type": "uint256"
        }
      ],
      "name": "MintedPackageCard",
      "type": "event"
    },
    {
      "constant": true,
      "inputs": [
        {
          "name": "_packageType",
          "type": "uint256"
        },
        {
          "name": "_currencyType",
          "type": "uint256"
        }
      ],
      "name": "getPrice",
      "outputs": [
        {
          "name": "",
          "type": "uint256"
        }
      ],
      "payable": false,
      "stateMutability": "view",
      "type": "function"
    },
    {
      "constant": false,
      "inputs": [
        {
          "name": "_to",
          "type": "address"
        },
        {
          "name": "_packageType",
          "type": "uint256"
        },
        {
          "name": "_currencyType",
          "type": "uint256"
        }
      ],
      "name": "createPackage",
      "outputs": [
        {
          "name": "price",
          "type": "uint256"
        },
        {
          "name": "packageId",
          "type": "uint256"
        }
      ],
      "payable": false,
      "stateMutability": "nonpayable",
      "type": "function"
    }
  ],
  "bytecode": "0x6080604052336000806101000a81548173ffffffffffffffffffffffffffffffffffffffff021916908373ffffffffffffffffffffffffffffffffffffffff1602179055506001600260003373ffffffffffffffffffffffffffffffffffffffff1673ffffffffffffffffffffffffffffffffffffffff16815260200190815260200160002060006101000a81548160ff021916908315150217905550612228806100ab6000396000f3006080604052600436106100c5576000357c0100000000000000000000000000000000000000000000000000000000900463ffffffff16806309fa1f90146100ca5780631ff31d4d146100f957806335f26ef81461016b57806338eef047146101ae578063558fe357146102095780635cf4ee911461026457806379ba5097146102af5780638da5cb5b146102c657806396d7529a1461031d578063c030d8b814610360578063d4ee1d90146103a3578063dc879f52146103fa578063f2fde38b14610425575b600080fd5b3480156100d657600080fd5b506100df610468565b604051808215151515815260200191505060405180910390f35b34801561010557600080fd5b5061014e600480360381019080803573ffffffffffffffffffffffffffffffffffffffff169060200190929190803590602001909291908035906020019092919050505061047f565b604051808381526020018281526020019250505060405180910390f35b34801561017757600080fd5b506101ac600480360381019080803573ffffffffffffffffffffffffffffffffffffffff16906020019092919050505061056e565b005b3480156101ba57600080fd5b506101ef600480360381019080803573ffffffffffffffffffffffffffffffffffffffff169060200190929190505050610676565b604051808215151515815260200191505060405180910390f35b34801561021557600080fd5b50610262600480360381019080803573ffffffffffffffffffffffffffffffffffffffff1690602001909291908035151590602001909291908035151590602001909291905050506106cc565b005b34801561027057600080fd5b5061029960048036038101908080359060200190929190803590602001909291905050506108cc565b6040518082815260200191505060405180910390f35b3480156102bb57600080fd5b506102c4610a6f565b005b3480156102d257600080fd5b506102db610c77565b604051808273ffffffffffffffffffffffffffffffffffffffff1673ffffffffffffffffffffffffffffffffffffffff16815260200191505060405180910390f35b34801561032957600080fd5b5061035e600480360381019080803573ffffffffffffffffffffffffffffffffffffffff169060200190929190505050610c9c565b005b34801561036c57600080fd5b506103a1600480360381019080803573ffffffffffffffffffffffffffffffffffffffff169060200190929190505050610da4565b005b3480156103af57600080fd5b506103b8610eac565b604051808273ffffffffffffffffffffffffffffffffffffffff1673ffffffffffffffffffffffffffffffffffffffff16815260200191505060405180910390f35b34801561040657600080fd5b5061040f610ed2565b6040518082815260200191505060405180910390f35b34801561043157600080fd5b50610466600480360381019080803573ffffffffffffffffffffffffffffffffffffffff169060200190929190505050610ed8565b005b6000600360009054906101000a900460ff16905090565b60008061048b33610676565b15156104ff576040517f08c379a000000000000000000000000000000000000000000000000000000000815260040180806020018281038252600c8152602001807f5368617265643a2065727231000000000000000000000000000000000000000081525060200191505060405180910390fd5b600160066000828254019250508190555060018414156105275761052285610fe0565b610555565b600284141561053f5761053985611517565b50610554565b60038414156105535761055185611b5f565b505b5b5b61055f84846108cc565b91506006549050935093915050565b6000809054906101000a900473ffffffffffffffffffffffffffffffffffffffff1673ffffffffffffffffffffffffffffffffffffffff163373ffffffffffffffffffffffffffffffffffffffff16141515610632576040517f08c379a000000000000000000000000000000000000000000000000000000000815260040180806020018281038252600b8152602001807f4f776e65643a206572723100000000000000000000000000000000000000000081525060200191505060405180910390fd5b80600360016101000a81548173ffffffffffffffffffffffffffffffffffffffff021916908373ffffffffffffffffffffffffffffffffffffffff16021790555050565b6000600260008373ffffffffffffffffffffffffffffffffffffffff1673ffffffffffffffffffffffffffffffffffffffff16815260200190815260200160002060009054906101000a900460ff169050919050565b6000809054906101000a900473ffffffffffffffffffffffffffffffffffffffff1673ffffffffffffffffffffffffffffffffffffffff163373ffffffffffffffffffffffffffffffffffffffff16141515610790576040517f08c379a000000000000000000000000000000000000000000000000000000000815260040180806020018281038252600b8152602001807f4f776e65643a206572723100000000000000000000000000000000000000000081525060200191505060405180910390fd5b60001515600360009054906101000a900460ff1615151415156107b257600080fd5b8273ffffffffffffffffffffffffffffffffffffffff163373ffffffffffffffffffffffffffffffffffffffff1614151515610856576040517f08c379a000000000000000000000000000000000000000000000000000000000815260040180806020018281038252600c8152602001807f5368617265643a2065727232000000000000000000000000000000000000000081525060200191505060405180910390fd5b80600360006101000a81548160ff02191690831515021790555081600260008573ffffffffffffffffffffffffffffffffffffffff1673ffffffffffffffffffffffffffffffffffffffff16815260200190815260200160002060006101000a81548160ff021916908315150217905550505050565b6000600560009054906101000a900473ffffffffffffffffffffffffffffffffffffffff1673ffffffffffffffffffffffffffffffffffffffff1663e24af041836040518263ffffffff167c010000000000000000000000000000000000000000000000000000000002815260040180828152602001915050602060405180830381600087803b15801561095f57600080fd5b505af1158015610973573d6000803e3d6000fd5b505050506040513d602081101561098957600080fd5b8101908080519060200190929190505050600560009054906101000a900473ffffffffffffffffffffffffffffffffffffffff1673ffffffffffffffffffffffffffffffffffffffff166311a0ed9b856040518263ffffffff167c010000000000000000000000000000000000000000000000000000000002815260040180828152602001915050602060405180830381600087803b158015610a2b57600080fd5b505af1158015610a3f573d6000803e3d6000fd5b505050506040513d6020811015610a5557600080fd5b810190808051906020019092919050505002905092915050565b600160009054906101000a900473ffffffffffffffffffffffffffffffffffffffff1673ffffffffffffffffffffffffffffffffffffffff163373ffffffffffffffffffffffffffffffffffffffff16141515610b34576040517f08c379a000000000000000000000000000000000000000000000000000000000815260040180806020018281038252600b8152602001807f4f776e65643a206572723200000000000000000000000000000000000000000081525060200191505060405180910390fd5b600160009054906101000a900473ffffffffffffffffffffffffffffffffffffffff1673ffffffffffffffffffffffffffffffffffffffff166000809054906101000a900473ffffffffffffffffffffffffffffffffffffffff1673ffffffffffffffffffffffffffffffffffffffff167f8be0079c531659141344cd1fd0a4f28419497f9722a3daafe3b4186f6b6457e060405160405180910390a3600160009054906101000a900473ffffffffffffffffffffffffffffffffffffffff166000806101000a81548173ffffffffffffffffffffffffffffffffffffffff021916908373ffffffffffffffffffffffffffffffffffffffff1602179055506000600160006101000a81548173ffffffffffffffffffffffffffffffffffffffff021916908373ffffffffffffffffffffffffffffffffffffffff160217905550565b6000809054906101000a900473ffffffffffffffffffffffffffffffffffffffff1681565b6000809054906101000a900473ffffffffffffffffffffffffffffffffffffffff1673ffffffffffffffffffffffffffffffffffffffff163373ffffffffffffffffffffffffffffffffffffffff16141515610d60576040517f08c379a000000000000000000000000000000000000000000000000000000000815260040180806020018281038252600b8152602001807f4f776e65643a206572723100000000000000000000000000000000000000000081525060200191505060405180910390fd5b80600560006101000a81548173ffffffffffffffffffffffffffffffffffffffff021916908373ffffffffffffffffffffffffffffffffffffffff16021790555050565b6000809054906101000a900473ffffffffffffffffffffffffffffffffffffffff1673ffffffffffffffffffffffffffffffffffffffff163373ffffffffffffffffffffffffffffffffffffffff16141515610e68576040517f08c379a000000000000000000000000000000000000000000000000000000000815260040180806020018281038252600b8152602001807f4f776e65643a206572723100000000000000000000000000000000000000000081525060200191505060405180910390fd5b80600460006101000a81548173ffffffffffffffffffffffffffffffffffffffff021916908373ffffffffffffffffffffffffffffffffffffffff16021790555050565b600160009054906101000a900473ffffffffffffffffffffffffffffffffffffffff1681565b60065481565b6000809054906101000a900473ffffffffffffffffffffffffffffffffffffffff1673ffffffffffffffffffffffffffffffffffffffff163373ffffffffffffffffffffffffffffffffffffffff16141515610f9c576040517f08c379a000000000000000000000000000000000000000000000000000000000815260040180806020018281038252600b8152602001807f4f776e65643a206572723100000000000000000000000000000000000000000081525060200191505060405180910390fd5b80600160006101000a81548173ffffffffffffffffffffffffffffffffffffffff021916908373ffffffffffffffffffffffffffffffffffffffff16021790555050565b606060036040519080825280602002602001820160405280156110125781602001602082028038833980820191505090505b50905061271782604051808273ffffffffffffffffffffffffffffffffffffffff1673ffffffffffffffffffffffffffffffffffffffff166c0100000000000000000000000002815260140191505060405180910390206001900481151561107657fe5b0681600081518110151561108657fe5b9060200190602002018181525050612719600654604051808281526020019150506040518091039020600190048115156110bc57fe5b068160018151811015156110cc57fe5b906020019060200201818152505061273560fa80438115156110ea57fe5b04024060405180826000191660001916815260200191505060405180910390206001900481151561111757fe5b0681600281518110151561112757fe5b906020019060200201818152505061273781600281518110151561114757fe5b9060200190602002015182600181518110151561116057fe5b9060200190602002015183600081518110151561117957fe5b906020019060200201510202604051808281526020019150506040518091039020600190048115156111a757fe5b068160008151811015156111b757fe5b90602001906020020181815250506111ea8160008151811015156111d757fe5b90602001906020020151601960056121b2565b8160018151811015156111f957fe5b9060200190602002018181525050600360019054906101000a900473ffffffffffffffffffffffffffffffffffffffff1673ffffffffffffffffffffffffffffffffffffffff1663d72b262a82600081518110151561125457fe5b9060200190602002015183600181518110151561126d57fe5b906020019060200201516040518363ffffffff167c01000000000000000000000000000000000000000000000000000000000281526004018083815260200182815260200192505050602060405180830381600087803b1580156112d057600080fd5b505af11580156112e4573d6000803e3d6000fd5b505050506040513d60208110156112fa57600080fd5b810190808051906020019092919050505081600281518110151561131a57fe5b9060200190602002018181525050600460009054906101000a900473ffffffffffffffffffffffffffffffffffffffff1673ffffffffffffffffffffffffffffffffffffffff16631380a34a8383600281518110151561137657fe5b906020019060200201516040518363ffffffff167c0100000000000000000000000000000000000000000000000000000000028152600401808373ffffffffffffffffffffffffffffffffffffffff1673ffffffffffffffffffffffffffffffffffffffff168152602001828152602001925050506040805180830381600087803b15801561140457600080fd5b505af1158015611418573d6000803e3d6000fd5b505050506040513d604081101561142e57600080fd5b81019080805190602001909291908051906020019092919050505082600081518110151561145857fe5b90602001906020020183600181518110151561147057fe5b906020019060200201828152508281525050508173ffffffffffffffffffffffffffffffffffffffff167f468584adc10f35c8362e06c1ded6cd278e6a49d538d9a76ef3e839fcffd1a5546006548360008151811015156114cd57fe5b906020019060200201518460018151811015156114e657fe5b9060200190602002015160405180848152602001838152602001828152602001935050505060405180910390a25050565b600060606000600760405190808252806020026020018201604052801561154d5781602001602082028038833980820191505090505b50915061271784604051808273ffffffffffffffffffffffffffffffffffffffff1673ffffffffffffffffffffffffffffffffffffffff166c010000000000000000000000000281526014019150506040518091039020600190048115156115b157fe5b068260008151811015156115c157fe5b9060200190602002018181525050612719600654604051808281526020019150506040518091039020600190048115156115f757fe5b0682600181518110151561160757fe5b906020019060200201818152505061273560fa804381151561162557fe5b04024060405180826000191660001916815260200191505060405180910390206001900481151561165257fe5b0682600481518110151561166257fe5b9060200190602002018181525050600290505b6005811015611b58576127378183600481518110151561169157fe5b906020019060200201518460018151811015156116aa57fe5b90602001906020020151018460008151811015156116c457fe5b906020019060200201510202604051808281526020019150506040518091039020600190048115156116f257fe5b0682600081518110151561170257fe5b906020019060200201818152505060048114156117c057600182600381518110151561172a57fe5b9060200190602002015183600281518110151561174357fe5b9060200190602002015101101561177857600282600481518110151561176557fe5b90602001906020020181815250506117bb565b61179d82600081518110151561178a57fe5b90602001906020020151601e60076121b2565b8260048151811015156117ac57fe5b90602001906020020181815250505b611803565b6117e58260008151811015156117d257fe5b90602001906020020151601e60076121b2565b8260048151811015156117f457fe5b90602001906020020181815250505b600360019054906101000a900473ffffffffffffffffffffffffffffffffffffffff1673ffffffffffffffffffffffffffffffffffffffff1663d72b262a83600081518110151561185057fe5b9060200190602002015184600481518110151561186957fe5b906020019060200201516040518363ffffffff167c01000000000000000000000000000000000000000000000000000000000281526004018083815260200182815260200192505050602060405180830381600087803b1580156118cc57600080fd5b505af11580156118e0573d6000803e3d6000fd5b505050506040513d60208110156118f657600080fd5b810190808051906020019092919050505082600181518110151561191657fe5b9060200190602002018181525050600460009054906101000a900473ffffffffffffffffffffffffffffffffffffffff1673ffffffffffffffffffffffffffffffffffffffff16631380a34a8584600181518110151561197257fe5b906020019060200201516040518363ffffffff167c0100000000000000000000000000000000000000000000000000000000028152600401808373ffffffffffffffffffffffffffffffffffffffff1673ffffffffffffffffffffffffffffffffffffffff168152602001828152602001925050506040805180830381600087803b158015611a0057600080fd5b505af1158015611a14573d6000803e3d6000fd5b505050506040513d6040811015611a2a57600080fd5b810190808051906020019092919080519060200190929190505050836005815181101515611a5457fe5b906020019060200201846006815181101515611a6c57fe5b906020019060200201828152508281525050508373ffffffffffffffffffffffffffffffffffffffff167f468584adc10f35c8362e06c1ded6cd278e6a49d538d9a76ef3e839fcffd1a554600654846005815181101515611ac957fe5b90602001906020020151856006815181101515611ae257fe5b9060200190602002015160405180848152602001838152602001828152602001935050505060405180910390a2600182836004815181101515611b2157fe5b90602001906020020151815181101515611b3757fe5b90602001906020020181815101915081815250508080600101915050611675565b5050919050565b6000606060006007604051908082528060200260200182016040528015611b955781602001602082028038833980820191505090505b50915061271784604051808273ffffffffffffffffffffffffffffffffffffffff1673ffffffffffffffffffffffffffffffffffffffff166c01000000000000000000000000028152601401915050604051809103902060019004811515611bf957fe5b06826000815181101515611c0957fe5b906020019060200201818152505061271960065460405180828152602001915050604051809103902060019004811515611c3f57fe5b06826001815181101515611c4f57fe5b906020019060200201818152505061273560fa8043811515611c6d57fe5b040240604051808260001916600019168152602001915050604051809103902060019004811515611c9a57fe5b06826004815181101515611caa57fe5b9060200190602002018181525050600290505b60078110156121ab5761273781836004815181101515611cd957fe5b90602001906020020151846001815181101515611cf257fe5b9060200190602002015101846000815181101515611d0c57fe5b90602001906020020151020260405180828152602001915050604051809103902060019004811515611d3a57fe5b06826000815181101515611d4a57fe5b90602001906020020181815250506005811480611d675750600681145b15611e13576002826003815181101515611d7d57fe5b90602001906020020151836002815181101515611d9657fe5b90602001906020020151011015611dcb576002826004815181101515611db857fe5b9060200190602002018181525050611e0e565b611df0826000815181101515611ddd57fe5b90602001906020020151602360096121b2565b826004815181101515611dff57fe5b90602001906020020181815250505b611e56565b611e38826000815181101515611e2557fe5b90602001906020020151602360096121b2565b826004815181101515611e4757fe5b90602001906020020181815250505b600360019054906101000a900473ffffffffffffffffffffffffffffffffffffffff1673ffffffffffffffffffffffffffffffffffffffff1663d72b262a836000815181101515611ea357fe5b90602001906020020151846004815181101515611ebc57fe5b906020019060200201516040518363ffffffff167c01000000000000000000000000000000000000000000000000000000000281526004018083815260200182815260200192505050602060405180830381600087803b158015611f1f57600080fd5b505af1158015611f33573d6000803e3d6000fd5b505050506040513d6020811015611f4957600080fd5b8101908080519060200190929190505050826001815181101515611f6957fe5b9060200190602002018181525050600460009054906101000a900473ffffffffffffffffffffffffffffffffffffffff1673ffffffffffffffffffffffffffffffffffffffff16631380a34a85846001815181101515611fc557fe5b906020019060200201516040518363ffffffff167c0100000000000000000000000000000000000000000000000000000000028152600401808373ffffffffffffffffffffffffffffffffffffffff1673ffffffffffffffffffffffffffffffffffffffff168152602001828152602001925050506040805180830381600087803b15801561205357600080fd5b505af1158015612067573d6000803e3d6000fd5b505050506040513d604081101561207d57600080fd5b8101908080519060200190929190805190602001909291905050508360058151811015156120a757fe5b9060200190602002018460068151811015156120bf57fe5b906020019060200201828152508281525050508373ffffffffffffffffffffffffffffffffffffffff167f468584adc10f35c8362e06c1ded6cd278e6a49d538d9a76ef3e839fcffd1a55460065484600581518110151561211c57fe5b9060200190602002015185600681518110151561213557fe5b9060200190602002015160405180848152602001838152602001828152602001935050505060405180910390a260018283600481518110151561217457fe5b9060200190602002015181518110151561218a57fe5b90602001906020020181815101915081815250508080600101915050611cbd565b5050919050565b6000816064858115156121c157fe5b0610156121d157600390506121f5565b8282016064858115156121e057fe5b0610156121f057600290506121f5565b600190505b93925050505600a165627a7a72305820b44dab2395b1e310764a9ea4114041a6381d662b8a32a6dd77dcd8798cbba9c30029",
  "source": "pragma solidity ^0.4.25;\r\n\r\nimport \"./Interfaces.sol\";\r\nimport \"./Helpers.sol\";\r\nimport \"./Enums.sol\";\r\n\r\nimport \"./Libs.sol\";\r\n\r\ncontract CardPackage is ICardPackage, Shared,\r\n    UsingCardBase,\r\n    UsingCard,\r\n    UsingSettings,\r\n    UsingEnums\r\n{\r\n    using SafeMath for uint256;\r\n    using CardByteModifier for uint256;\r\n\r\n    uint256 public numberOfPackage;\r\n\r\n    function _randomToRarity(\r\n        uint256 _random,\r\n        uint256 _rarePercent,\r\n        uint256 _exoticPercent) internal pure returns (uint256) {\r\n        if ((_random % 100) < _exoticPercent) {\r\n            return 3;\r\n        }\r\n        if ((_random % 100) < _exoticPercent + _rarePercent) {\r\n            return 2;\r\n        }\r\n        return 1; //common\r\n    }\r\n\r\n    function getPrice(uint256 _packageType, uint256 _currencyType) public view returns(uint256) {\r\n        return Settings.getPackagePrice(_packageType) * Settings.getPriceCurrencyMultiplier(_currencyType);\r\n    }\r\n\r\n    function createPackage(address _to, uint256 _packageType, uint256 _currencyType) public __onlyShared returns (uint256 price, uint256 packageId) {\r\n        numberOfPackage += 1; //ayni zamanda package id.\r\n        if (_packageType == 1) {\r\n            createPackage1(_to);\r\n        } else if (_packageType == 2) {\r\n            createPackage2(_to);\r\n        } else if (_packageType == 3) {\r\n            createPackage3(_to);\r\n        }\r\n        price = getPrice(_packageType, _currencyType);\r\n        packageId = numberOfPackage;\r\n    }\r\n\r\n    // <1 card, rare 25%, exotic %5, price Multiplier 0.003>\r\n    // <3 card, rare 30%, exotic %7, price Multiplier 0.003> at least one rare\r\n    // <5 card, rare 35%, exotic %9, price Multiplier 0.003> at least two rare\r\n\r\n    // <1 card, rare 25%, exotic %5, price Multiplier 0.003>\r\n    function createPackage1(address _to) internal {\r\n\r\n        //NOTE-1: zamana, kisiye ve isleme bagli degisim var. Bu sayede;\r\n        // farkli zamanlarda farkli kartlar uretilecektir(ayni kisi ve islem icin.).\r\n        // farkli islemlerde farkli kartlar uretilecektir.(ayni kisi ve ayni zaman dilimi icin.).\r\n        // farki kisiler icin farkli kartlar uretilecektir.(ayni zaman dilimi ve ayni islem icin.).\r\n        //NOTE-2: 250 block yaklasik 1 saat yapmakta. Bu sayede brute force ile paket secmek oldukca zahmetli.\r\n        uint256[] memory rnd = new uint256[](3); //last index: random\r\n        rnd[0] = uint256(keccak256(_to)) % 10007; //kisiye bagli degisim\r\n        rnd[1] = uint256(keccak256(numberOfPackage)) % 10009; //isleme bagli degisim\r\n        rnd[2] =\r\n            uint256(keccak256(block.blockhash((block.number / 250) * 250))) %\r\n            10037; //zamana bagli degisim\r\n\r\n        rnd[0] = uint256(keccak256(rnd[0] * rnd[1] * rnd[2])) % 10039;\r\n\r\n        rnd[1] = _randomToRarity(rnd[0], 25, 5); //rarity\r\n        rnd[2] = CardBase.randomToBaseIdByRarity(rnd[0], rnd[1]); //baseid\r\n        (rnd[0], rnd[1]) = Card.mintCardWithBaseId(_to, rnd[2]);\r\n        emit MintedPackageCard(_to, numberOfPackage, rnd[0], rnd[1]);\r\n\r\n    }\r\n\r\n    // <3 card, rare 30%, exotic %7, price Multiplier 0.003> at least one rare\r\n    function createPackage2(address _to) internal returns(uint256) {\r\n\r\n\r\n        //index-0: random\r\n        //index-1: common count | baseid\r\n        //index-2: rare count\r\n        //index-3: exotic count\r\n        //index-4: rarity\r\n\r\n        uint256[] memory rnd = new uint256[](7); //last index: random\r\n        rnd[0] = uint256(keccak256(_to)) % 10007; //kisiye bagli degisim\r\n        rnd[1] = uint256(keccak256(numberOfPackage)) % 10009; //isleme bagli degisim\r\n        rnd[4] =\r\n            uint256(keccak256(block.blockhash((block.number / 250) * 250))) %\r\n            10037; //zamana bagli degisim\r\n\r\n        for (uint256 i = 2; i < 5; i++) {\r\n\r\n            rnd[0] = uint256(keccak256(rnd[0] * (rnd[1] + rnd[4]) * i)) % 10039;\r\n\r\n            if(i == 4) {\r\n                //hic rare veya exotic yok ise rare uret.\r\n                if (rnd[2] + rnd[3] < 1) {\r\n                    rnd[4] = 2; //rare\r\n                } else {\r\n                    rnd[4] = _randomToRarity(rnd[0], 30, 7); //rarity\r\n                }\r\n            } else {\r\n                rnd[4] = _randomToRarity(rnd[0], 30, 7); //rarity\r\n            }\r\n\r\n            rnd[1] = CardBase.randomToBaseIdByRarity(rnd[0], rnd[4]); //baseid\r\n         \r\n            (rnd[5], rnd[6]) = Card.mintCardWithBaseId(_to, rnd[1]);\r\n            emit MintedPackageCard(_to, numberOfPackage, rnd[5], rnd[6]);\r\n\r\n            //rnd4 -> index 1,2,3 not: 1 onemsiz. 2 ile 3 daha once kullanilmadi.\r\n            rnd[rnd[4]] += 1;\r\n\r\n        }\r\n\r\n    }\r\n\r\n    // <5 card, rare 35%, exotic %9, price Multiplier 0.003> at least two rare\r\n    function createPackage3(address _to) internal returns(uint256) {\r\n\r\n        //index-0: random\r\n        //index-1: common count | baseid\r\n        //index-2: rare count\r\n        //index-3: exotic count\r\n        //index-4: rarity\r\n\r\n        uint256[] memory rnd = new uint256[](7); //last index: random\r\n        rnd[0] = uint256(keccak256(_to)) % 10007; //kisiye bagli degisim\r\n        rnd[1] = uint256(keccak256(numberOfPackage)) % 10009; //isleme bagli degisim\r\n        rnd[4] =\r\n            uint256(keccak256(block.blockhash((block.number / 250) * 250))) %\r\n            10037; //zamana bagli degisim\r\n\r\n        for (uint256 i = 2; i < 7; i++) {\r\n\r\n            rnd[0] = uint256(keccak256(rnd[0] * (rnd[1] + rnd[4]) * i)) % 10039;\r\n\r\n            if(i == 5 || i == 6) {\r\n                //hic rare veya exotic yok ise rare uret.\r\n                if (rnd[2] + rnd[3] < 2) {\r\n                    rnd[4] = 2; //rare\r\n                } else {\r\n                    rnd[4] = _randomToRarity(rnd[0], 35, 9); //rarity\r\n                }\r\n            } else {\r\n                rnd[4] = _randomToRarity(rnd[0], 35, 9); //rarity\r\n            }\r\n\r\n            rnd[1] = CardBase.randomToBaseIdByRarity(rnd[0], rnd[4]); //baseid\r\n         \r\n            (rnd[5], rnd[6]) = Card.mintCardWithBaseId(_to, rnd[1]);\r\n            emit MintedPackageCard(_to, numberOfPackage, rnd[5], rnd[6]);\r\n\r\n            //rnd4 -> index 1,2,3 not: 1 onemsiz. 2 ile 3 daha once kullanilmadi.\r\n            rnd[rnd[4]] += 1;\r\n\r\n        }\r\n\r\n    }\r\n\r\n}\r\n",
  "sourcePath": "C:\\wildalo\\wildalo-contract-dev\\contracts\\CardPackage.sol",
  "compiler": {
    "name": "solc",
    "version": "0.4.25+commit.59dbf8f1.Emscripten.clang"
  },
  "schemaVersion": "3.4.5",
  "updatedAt": "2022-07-03T12:55:47.995Z",
  "networkType": "ethereum",
  "devdoc": {
    "methods": {}
  },
  "userdoc": {
    "methods": {}
  }
}