{
  "contractName": "CardBase",
  "abi": [
    {
      "constant": true,
      "inputs": [],
      "name": "isLinked",
      "outputs": [
        {
          "name": "",
          "type": "bool"
        }
      ],
      "payable": false,
      "stateMutability": "view",
      "type": "function"
    },
    {
      "constant": true,
      "inputs": [
        {
          "name": "_address",
          "type": "address"
        }
      ],
      "name": "isSharedWith",
      "outputs": [
        {
          "name": "",
          "type": "bool"
        }
      ],
      "payable": false,
      "stateMutability": "view",
      "type": "function"
    },
    {
      "constant": false,
      "inputs": [
        {
          "name": "_address",
          "type": "address"
        },
        {
          "name": "_isShared",
          "type": "bool"
        },
        {
          "name": "_linked",
          "type": "bool"
        }
      ],
      "name": "setSharingWith",
      "outputs": [],
      "payable": false,
      "stateMutability": "nonpayable",
      "type": "function"
    },
    {
      "constant": false,
      "inputs": [],
      "name": "acceptOwnership",
      "outputs": [],
      "payable": false,
      "stateMutability": "nonpayable",
      "type": "function"
    },
    {
      "constant": true,
      "inputs": [],
      "name": "owner",
      "outputs": [
        {
          "name": "",
          "type": "address"
        }
      ],
      "payable": false,
      "stateMutability": "view",
      "type": "function"
    },
    {
      "constant": false,
      "inputs": [
        {
          "name": "_address",
          "type": "address"
        }
      ],
      "name": "setSettingsContract",
      "outputs": [],
      "payable": false,
      "stateMutability": "nonpayable",
      "type": "function"
    },
    {
      "constant": true,
      "inputs": [],
      "name": "newOwner",
      "outputs": [
        {
          "name": "",
          "type": "address"
        }
      ],
      "payable": false,
      "stateMutability": "view",
      "type": "function"
    },
    {
      "constant": false,
      "inputs": [
        {
          "name": "_newOwner",
          "type": "address"
        }
      ],
      "name": "transferOwnership",
      "outputs": [],
      "payable": false,
      "stateMutability": "nonpayable",
      "type": "function"
    },
    {
      "anonymous": false,
      "inputs": [
        {
          "indexed": true,
          "name": "_from",
          "type": "address"
        },
        {
          "indexed": true,
          "name": "_to",
          "type": "address"
        }
      ],
      "name": "OwnershipTransferred",
      "type": "event"
    },
    {
      "constant": false,
      "inputs": [
        {
          "name": "_cardBasesAddress",
          "type": "address"
        },
        {
          "name": "_rarityIndexs",
          "type": "address"
        }
      ],
      "name": "setProbs",
      "outputs": [],
      "payable": false,
      "stateMutability": "nonpayable",
      "type": "function"
    },
    {
      "constant": false,
      "inputs": [],
      "name": "initCardBase",
      "outputs": [],
      "payable": false,
      "stateMutability": "nonpayable",
      "type": "function"
    },
    {
      "constant": true,
      "inputs": [
        {
          "name": "_baseId",
          "type": "uint256"
        }
      ],
      "name": "existCardBase",
      "outputs": [
        {
          "name": "",
          "type": "bool"
        }
      ],
      "payable": false,
      "stateMutability": "view",
      "type": "function"
    },
    {
      "constant": true,
      "inputs": [
        {
          "name": "_baseId",
          "type": "uint256"
        }
      ],
      "name": "getMetadataFromBaseId",
      "outputs": [
        {
          "name": "",
          "type": "uint256"
        }
      ],
      "payable": false,
      "stateMutability": "view",
      "type": "function"
    },
    {
      "constant": false,
      "inputs": [
        {
          "name": "_metedata",
          "type": "uint256"
        }
      ],
      "name": "createCardBase",
      "outputs": [],
      "payable": false,
      "stateMutability": "nonpayable",
      "type": "function"
    },
    {
      "constant": true,
      "inputs": [
        {
          "name": "_random",
          "type": "uint256"
        },
        {
          "name": "_rarity",
          "type": "uint256"
        }
      ],
      "name": "randomToBaseIdByRarity",
      "outputs": [
        {
          "name": "",
          "type": "uint256"
        }
      ],
      "payable": false,
      "stateMutability": "view",
      "type": "function"
    },
    {
      "constant": false,
      "inputs": [
        {
          "name": "_to",
          "type": "address"
        },
        {
          "name": "_score",
          "type": "int256"
        },
        {
          "name": "_count",
          "type": "uint256"
        }
      ],
      "name": "randomBaseIdToWinner",
      "outputs": [
        {
          "name": "",
          "type": "uint256"
        }
      ],
      "payable": false,
      "stateMutability": "nonpayable",
      "type": "function"
    }
  ],
  "bytecode": "0x6080604052336000806101000a81548173ffffffffffffffffffffffffffffffffffffffff021916908373ffffffffffffffffffffffffffffffffffffffff1602179055506001600260003373ffffffffffffffffffffffffffffffffffffffff1673ffffffffffffffffffffffffffffffffffffffff16815260200190815260200160002060006101000a81548160ff0219169083151502179055506123e7806100ab6000396000f3006080604052600436106100db576000357c0100000000000000000000000000000000000000000000000000000000900463ffffffff16806309fa1f90146100e057806338eef0471461010f578063558fe3571461016a578063780ef38a146101c557806379ba50971461020a5780638da5cb5b146102215780638f4248d51461027857806390578f2a146102a557806396d7529a14610310578063a589820e14610353578063cb2b75731461036a578063cfa286fe146103ab578063d4ee1d901461040e578063d72b262a14610465578063f2fde38b146104b0575b600080fd5b3480156100ec57600080fd5b506100f56104f3565b604051808215151515815260200191505060405180910390f35b34801561011b57600080fd5b50610150600480360381019080803573ffffffffffffffffffffffffffffffffffffffff16906020019092919050505061050a565b604051808215151515815260200191505060405180910390f35b34801561017657600080fd5b506101c3600480360381019080803573ffffffffffffffffffffffffffffffffffffffff169060200190929190803515159060200190929190803515159060200190929190505050610560565b005b3480156101d157600080fd5b506101f060048036038101908080359060200190929190505050610760565b604051808215151515815260200191505060405180910390f35b34801561021657600080fd5b5061021f6108c7565b005b34801561022d57600080fd5b50610236610acf565b604051808273ffffffffffffffffffffffffffffffffffffffff1673ffffffffffffffffffffffffffffffffffffffff16815260200191505060405180910390f35b34801561028457600080fd5b506102a360048036038101908080359060200190929190505050610af4565b005b3480156102b157600080fd5b506102fa600480360381019080803573ffffffffffffffffffffffffffffffffffffffff1690602001909291908035906020019092919080359060200190929190505050610b7d565b6040518082815260200191505060405180910390f35b34801561031c57600080fd5b50610351600480360381019080803573ffffffffffffffffffffffffffffffffffffffff169060200190929190505050610fd9565b005b34801561035f57600080fd5b506103686110e1565b005b34801561037657600080fd5b5061039560048036038101908080359060200190929190505050611b43565b6040518082815260200191505060405180910390f35b3480156103b757600080fd5b5061040c600480360381019080803573ffffffffffffffffffffffffffffffffffffffff169060200190929190803573ffffffffffffffffffffffffffffffffffffffff169060200190929190505050611cad565b005b34801561041a57600080fd5b50610423611df7565b604051808273ffffffffffffffffffffffffffffffffffffffff1673ffffffffffffffffffffffffffffffffffffffff16815260200191505060405180910390f35b34801561047157600080fd5b5061049a6004803603810190808035906020019092919080359060200190929190505050611e1d565b6040518082815260200191505060405180910390f35b3480156104bc57600080fd5b506104f1600480360381019080803573ffffffffffffffffffffffffffffffffffffffff16906020019092919050505061204e565b005b6000600360009054906101000a900460ff16905090565b6000600260008373ffffffffffffffffffffffffffffffffffffffff1673ffffffffffffffffffffffffffffffffffffffff16815260200190815260200160002060009054906101000a900460ff169050919050565b6000809054906101000a900473ffffffffffffffffffffffffffffffffffffffff1673ffffffffffffffffffffffffffffffffffffffff163373ffffffffffffffffffffffffffffffffffffffff16141515610624576040517f08c379a000000000000000000000000000000000000000000000000000000000815260040180806020018281038252600b8152602001807f4f776e65643a206572723100000000000000000000000000000000000000000081525060200191505060405180910390fd5b60001515600360009054906101000a900460ff16151514151561064657600080fd5b8273ffffffffffffffffffffffffffffffffffffffff163373ffffffffffffffffffffffffffffffffffffffff16141515156106ea576040517f08c379a000000000000000000000000000000000000000000000000000000000815260040180806020018281038252600c8152602001807f5368617265643a2065727232000000000000000000000000000000000000000081525060200191505060405180910390fd5b80600360006101000a81548160ff02191690831515021790555081600260008573ffffffffffffffffffffffffffffffffffffffff1673ffffffffffffffffffffffffffffffffffffffff16815260200190815260200160002060006101000a81548160ff021916908315150217905550505050565b600061076b3361050a565b15156107df576040517f08c379a000000000000000000000000000000000000000000000000000000000815260040180806020018281038252600c8152602001807f5368617265643a2065727231000000000000000000000000000000000000000081525060200191505060405180910390fd5b6000821180156108af5750600460009054906101000a900473ffffffffffffffffffffffffffffffffffffffff1673ffffffffffffffffffffffffffffffffffffffff1663be1c766b6040518163ffffffff167c0100000000000000000000000000000000000000000000000000000000028152600401602060405180830381600087803b15801561087057600080fd5b505af1158015610884573d6000803e3d6000fd5b505050506040513d602081101561089a57600080fd5b81019080805190602001909291905050508211155b156108bd57600190506108c2565b600090505b919050565b600160009054906101000a900473ffffffffffffffffffffffffffffffffffffffff1673ffffffffffffffffffffffffffffffffffffffff163373ffffffffffffffffffffffffffffffffffffffff1614151561098c576040517f08c379a000000000000000000000000000000000000000000000000000000000815260040180806020018281038252600b8152602001807f4f776e65643a206572723200000000000000000000000000000000000000000081525060200191505060405180910390fd5b600160009054906101000a900473ffffffffffffffffffffffffffffffffffffffff1673ffffffffffffffffffffffffffffffffffffffff166000809054906101000a900473ffffffffffffffffffffffffffffffffffffffff1673ffffffffffffffffffffffffffffffffffffffff167f8be0079c531659141344cd1fd0a4f28419497f9722a3daafe3b4186f6b6457e060405160405180910390a3600160009054906101000a900473ffffffffffffffffffffffffffffffffffffffff166000806101000a81548173ffffffffffffffffffffffffffffffffffffffff021916908373ffffffffffffffffffffffffffffffffffffffff1602179055506000600160006101000a81548173ffffffffffffffffffffffffffffffffffffffff021916908373ffffffffffffffffffffffffffffffffffffffff160217905550565b6000809054906101000a900473ffffffffffffffffffffffffffffffffffffffff1681565b610afd3361050a565b1515610b71576040517f08c379a000000000000000000000000000000000000000000000000000000000815260040180806020018281038252600c8152602001807f5368617265643a2065727231000000000000000000000000000000000000000081525060200191505060405180910390fd5b610b7a81612156565b50565b600060606002604051908082528060200260200182016040528015610bb15781602001602082028038833980820191505090505b5090506127198360405180828152602001915050604051809103902060019004811515610bda57fe5b0661271786604051808273ffffffffffffffffffffffffffffffffffffffff1673ffffffffffffffffffffffffffffffffffffffff166c01000000000000000000000000028152601401915050604051809103902060019004811515610c3c57fe5b0602816000815181101515610c4d57fe5b906020019060200201818152505061273560fa8043811515610c6b57fe5b040240604051808260001916600019168152602001915050604051809103902060019004811515610c9857fe5b06816001815181101515610ca857fe5b9060200190602002018181525050633b9aca00816001815181101515610cca57fe5b90602001906020020151826000815181101515610ce357fe5b906020019060200201510260405180828152602001915050604051809103902060019004811515610d1057fe5b06816000815181101515610d2057fe5b906020019060200201818152505083816001815181101515610d3e57fe5b9060200190602002018181525050610640816001815181101515610d5e57fe5b906020019060200201511015610d92576001816001815181101515610d7f57fe5b9060200190602002018181525050610f95565b610960816001815181101515610da457fe5b906020019060200201511015610ea6576064816000815181101515610dc557fe5b90602001906020020151811515610dd857fe5b06816001815181101515610de857fe5b90602001906020020181815250506046816001815181101515610e0757fe5b906020019060200201511015610e3b576001816001815181101515610e2857fe5b9060200190602002018181525050610ea1565b605f816001815181101515610e4c57fe5b906020019060200201511015610e80576002816001815181101515610e6d57fe5b9060200190602002018181525050610ea0565b6003816001815181101515610e9157fe5b90602001906020020181815250505b5b610f94565b6064816000815181101515610eb757fe5b90602001906020020151811515610eca57fe5b06816001815181101515610eda57fe5b9060200190602002018181525050603c816001815181101515610ef957fe5b906020019060200201511015610f2d576001816001815181101515610f1a57fe5b9060200190602002018181525050610f93565b605a816001815181101515610f3e57fe5b906020019060200201511015610f72576002816001815181101515610f5f57fe5b9060200190602002018181525050610f92565b6003816001815181101515610f8357fe5b90602001906020020181815250505b5b5b5b610fcf816000815181101515610fa757fe5b90602001906020020151826001815181101515610fc057fe5b90602001906020020151611e1d565b9150509392505050565b6000809054906101000a900473ffffffffffffffffffffffffffffffffffffffff1673ffffffffffffffffffffffffffffffffffffffff163373ffffffffffffffffffffffffffffffffffffffff1614151561109d576040517f08c379a000000000000000000000000000000000000000000000000000000000815260040180806020018281038252600b8152602001807f4f776e65643a206572723100000000000000000000000000000000000000000081525060200191505060405180910390fd5b80600360016101000a81548173ffffffffffffffffffffffffffffffffffffffff021916908373ffffffffffffffffffffffffffffffffffffffff16021790555050565b6000809054906101000a900473ffffffffffffffffffffffffffffffffffffffff1673ffffffffffffffffffffffffffffffffffffffff163373ffffffffffffffffffffffffffffffffffffffff161415156111a5576040517f08c379a000000000000000000000000000000000000000000000000000000000815260040180806020018281038252600b8152602001807f4f776e65643a206572723100000000000000000000000000000000000000000081525060200191505060405180910390fd5b6111af6000612156565b6111d279110000000a000a00000000001f4000500009600032000be0001a612156565b6111f5791100140000000000000000000280000a0001400018000070000e612156565b6112187931001400000000001400000010400028000320004b0025800013612156565b61123b7921000a00000014000000000025800032000c800023004b000011612156565b61125e79110000000a000000000a00000e6000640006400028000410000f612156565b6112817921001e0000000000000000000010000100001000300000100004612156565b6112a479310000000a000000140a00000500003c00050000960000700012612156565b6112c77921000000000a000000000000190000640003c000180067200026612156565b6112ea79110000000a0a0000000000000b4000780002800018000dc0002d612156565b61130d793100000000000000000000004b000014000140000508ca00003d612156565b61133079220000000000140000000a000780000a0019000001000fa00096612156565b6113537912001400000000000000000001e000050000a000400000100012612156565b611376791200000000000014000a0000096000320001e00001000100001b612156565b6113997912000a000000000000000a000500000a000fa00030000140000b612156565b6113bc791200000a000000000000000006400014000280002d000b400014612156565b6113df7912000a0000000000000000000460001e00019000230004100009612156565b611402791200000000140000001400000320005a0001e000110001400016612156565b6114257922000a0000000a00000000000fa0001e0003c0002f000c800019612156565b61144879320014000000001400000000032000050001e0001c000230000e612156565b61146b7922000000000000001414000003c00028000280003d0000c0000a612156565b61148e79130000000a000a000000000012c00046000780002e0007d00013612156565b6114b1792300000000000000000000000020000100006000050000100002612156565b6114d47913000a00000000000a0000000c80001900050000520012c0000f612156565b6114f779230000000a0a0a00000000001900005a0008c000380015e0001e612156565b61151a79230000000a000000140a00000b40006e0005a000350000600016612156565b61153d79130000000000000000001e000320000a00082000130000200005612156565b61156079130a00000000000000000000014000140000a000030000100018612156565b61158379130000000000000000000000028000040000a0000d0000500006612156565b6115a67913000000000000140000000005a0002300023000780000200009612156565b6115c9792300000000000000001e00000b400046000640004b000200000c612156565b6115ec791400000000000000000000000820000c00032000280004600017612156565b61160f7924000000000000001e0a00000a00003c0003c00070000300000b612156565b61163279240000000a0a0000000a00000f0000820006e0003c0004d00018612156565b611655792400000a00000a000000000022600050000320002d009c40002d612156565b61167879340000000a0a0a00000000001f400078000c80002a0044c0002f612156565b61169b7924000a0000000a00000000002580008c000dc000270070800041612156565b6116be79140000000a0a0000000000000b400064000640000e0018100055612156565b6116e179241400000000000000000000028000280000a00005000020000b612156565b6117047914000a00000000000000000001e0000f000050002e0000600015612156565b6117277914000014000000000000000022600028000820002f004e200016612156565b61174a7925000a0000000a000000000003c0000a000c8000050000300013612156565b61176d7915000a0000000000000000000fa0001e0003c000080004300032612156565b611790793500140000000000000000001900000a0007800020000b400020612156565b6117b379150000000000000000000000064000080001e00041000200000e612156565b6117d679250000000a000a0000000000320000a0000f00002b00fa000043612156565b6117f9793500141400000000000000000960001900032000060003700023612156565b61181c7915000000000000000000000000a0000200007000230000100006612156565b61183f7925000a0000000000000000000080000300005000280000100008612156565b611862792514000000000000000000000780003c00028000070000500012612156565b6118857915000a00000000000000000001e0000a0000f0000f000030000e612156565b6118a879260000000a0a000000000a000960003c0003c000180000700007612156565b6118cb7916000a0000000000000000000320000a0000f000230000200010612156565b6118ee791600000000000a000a0000000b40003c00096000370004100007612156565b6119117916000a00000000000000000001e000050000f000300000a0000d612156565b6119347926000a00000000000000000001400005000050000a000020000a612156565b61195779160a00000000000000000000028000320001e000040000100008612156565b61197a791600000000000000000000000320000a0001400019000020000c612156565b61199d791600000000000000000000000500001900028000410000800015612156565b6119c07916000000000000000000000000a0000100005000030000100003612156565b6119e37916000a0000000000000000000320000300005000020000800012612156565b611a0679270000000a000000000000001f400078000320002d01d4c00038612156565b611a297917000a0000000000000000002580002800064000130070800013612156565b611a4c7917000a000000000000000000096000050000a000180002500020612156565b611a6f7927000a0000000000000000000280000a0000f000230000500011612156565b611a927927000a0000000000000000001900001e000500002c000af00010612156565b611ab5791700000000000000000000000140001e000140002f0000100007612156565b611ad8792700000a000000000a000000028000140000a00040000090001a612156565b611afb7917000a00000000000000000001e0000a00005000120000600011612156565b611b1e791700000a000000000a00000000a000050000a00028000010000b612156565b611b417927000a0000000000000000001f400032000640001d0019000016612156565b565b6000611b4e3361050a565b1515611bc2576040517f08c379a000000000000000000000000000000000000000000000000000000000815260040180806020018281038252600c8152602001807f5368617265643a2065727231000000000000000000000000000000000000000081525060200191505060405180910390fd5b611bcb82610760565b15611ca357600460009054906101000a900473ffffffffffffffffffffffffffffffffffffffff1673ffffffffffffffffffffffffffffffffffffffff16639507d39a836040518263ffffffff167c010000000000000000000000000000000000000000000000000000000002815260040180828152602001915050602060405180830381600087803b158015611c6157600080fd5b505af1158015611c75573d6000803e3d6000fd5b505050506040513d6020811015611c8b57600080fd5b81019080805190602001909291905050509050611ca8565b600090505b919050565b6000809054906101000a900473ffffffffffffffffffffffffffffffffffffffff1673ffffffffffffffffffffffffffffffffffffffff163373ffffffffffffffffffffffffffffffffffffffff16141515611d71576040517f08c379a000000000000000000000000000000000000000000000000000000000815260040180806020018281038252600b8152602001807f4f776e65643a206572723100000000000000000000000000000000000000000081525060200191505060405180910390fd5b81600460006101000a81548173ffffffffffffffffffffffffffffffffffffffff021916908373ffffffffffffffffffffffffffffffffffffffff16021790555080600560006101000a81548173ffffffffffffffffffffffffffffffffffffffff021916908373ffffffffffffffffffffffffffffffffffffffff1602179055505050565b600160009054906101000a900473ffffffffffffffffffffffffffffffffffffffff1681565b6000611e283361050a565b1515611e9c576040517f08c379a000000000000000000000000000000000000000000000000000000000815260040180806020018281038252600c8152602001807f5368617265643a2065727231000000000000000000000000000000000000000081525060200191505060405180910390fd5b600560009054906101000a900473ffffffffffffffffffffffffffffffffffffffff1673ffffffffffffffffffffffffffffffffffffffff1663669e48aa83600560009054906101000a900473ffffffffffffffffffffffffffffffffffffffff1673ffffffffffffffffffffffffffffffffffffffff16630986e647866040518263ffffffff167c010000000000000000000000000000000000000000000000000000000002815260040180828152602001915050602060405180830381600087803b158015611f6c57600080fd5b505af1158015611f80573d6000803e3d6000fd5b505050506040513d6020811015611f9657600080fd5b810190808051906020019092919050505086811515611fb157fe5b066040518363ffffffff167c01000000000000000000000000000000000000000000000000000000000281526004018083815260200182815260200192505050602060405180830381600087803b15801561200b57600080fd5b505af115801561201f573d6000803e3d6000fd5b505050506040513d602081101561203557600080fd5b8101908080519060200190929190505050905092915050565b6000809054906101000a900473ffffffffffffffffffffffffffffffffffffffff1673ffffffffffffffffffffffffffffffffffffffff163373ffffffffffffffffffffffffffffffffffffffff16141515612112576040517f08c379a000000000000000000000000000000000000000000000000000000000815260040180806020018281038252600b8152602001807f4f776e65643a206572723100000000000000000000000000000000000000000081525060200191505060405180910390fd5b80600160006101000a81548173ffffffffffffffffffffffffffffffffffffffff021916908373ffffffffffffffffffffffffffffffffffffffff16021790555050565b60008061216283612386565b9150600460009054906101000a900473ffffffffffffffffffffffffffffffffffffffff1673ffffffffffffffffffffffffffffffffffffffff1663be1c766b6040518163ffffffff167c0100000000000000000000000000000000000000000000000000000000028152600401602060405180830381600087803b1580156121ea57600080fd5b505af11580156121fe573d6000803e3d6000fd5b505050506040513d602081101561221457600080fd5b81019080805190602001909291905050509050600560009054906101000a900473ffffffffffffffffffffffffffffffffffffffff1673ffffffffffffffffffffffffffffffffffffffff1663dd1b613783836040518363ffffffff167c01000000000000000000000000000000000000000000000000000000000281526004018083815260200182815260200192505050600060405180830381600087803b1580156122c057600080fd5b505af11580156122d4573d6000803e3d6000fd5b50505050600460009054906101000a900473ffffffffffffffffffffffffffffffffffffffff1673ffffffffffffffffffffffffffffffffffffffff1663959ac484846040518263ffffffff167c010000000000000000000000000000000000000000000000000000000002815260040180828152602001915050600060405180830381600087803b15801561236957600080fd5b505af115801561237d573d6000803e3d6000fd5b50505050505050565b600061239f60cc600f846123a69092919063ffffffff16565b9050919050565b60008183859060020a900416905093925050505600a165627a7a72305820e147779ee4150d98822d19b1d945638edd275be9d4b6c95a6fbe73a0d713162a0029",
  "source": "pragma solidity ^ 0.4.25;\r\n\r\nimport './Interfaces.sol';\r\nimport './Helpers.sol';\r\nimport './Enums.sol';\r\n\r\nimport './Libs.sol';\r\n\r\ncontract CardBase is ICardBase, Shared,\r\n    UsingSettings,\r\n    UsingEnums {\r\n\r\n    using SafeMath for uint256;\r\n    using CardByteModifier for uint256;\r\n\r\n    ICardBases CardBases;\r\n    IRarityIndexs RarityIndexs;\r\n    \r\n    function setProbs(\r\n        address _cardBasesAddress,\r\n        address _rarityIndexs\r\n        ) public __onlyOwner {\r\n\r\n        CardBases = ICardBases(_cardBasesAddress);\r\n        RarityIndexs = IRarityIndexs(_rarityIndexs);\r\n    }\r\n\r\n    //##########################################################\r\n    //                        CARD METHODS\r\n    //##########################################################\r\n\r\n    function initCardBase() public __onlyOwner {\r\n        //id'lerin indexler ile ayni olmasi icin eklendi. Kullanilmayacak. bunun id'si 0.\r\n        _createCardBase(0); \r\n        _createCardBase(0x110000000a000a00000000001f4000500009600032000be0001a);\r\n        _createCardBase(0x1100140000000000000000000280000a0001400018000070000e);\r\n        _createCardBase(0x31001400000000001400000010400028000320004b0025800013);\r\n        _createCardBase(0x21000a00000014000000000025800032000c800023004b000011);\r\n        _createCardBase(0x110000000a000000000a00000e6000640006400028000410000f);\r\n        _createCardBase(0x21001e0000000000000000000010000100001000300000100004);\r\n        _createCardBase(0x310000000a000000140a00000500003c00050000960000700012);\r\n        _createCardBase(0x21000000000a000000000000190000640003c000180067200026);\r\n        _createCardBase(0x110000000a0a0000000000000b4000780002800018000dc0002d);\r\n        _createCardBase(0x3100000000000000000000004b000014000140000508ca00003d);\r\n        _createCardBase(0x220000000000140000000a000780000a0019000001000fa00096);\r\n        _createCardBase(0x12001400000000000000000001e000050000a000400000100012);\r\n        _createCardBase(0x1200000000000014000a0000096000320001e00001000100001b);\r\n        _createCardBase(0x12000a000000000000000a000500000a000fa00030000140000b);\r\n        _createCardBase(0x1200000a000000000000000006400014000280002d000b400014);\r\n        _createCardBase(0x12000a0000000000000000000460001e00019000230004100009);\r\n        _createCardBase(0x1200000000140000001400000320005a0001e000110001400016);\r\n        _createCardBase(0x22000a0000000a00000000000fa0001e0003c0002f000c800019);\r\n        _createCardBase(0x320014000000001400000000032000050001e0001c000230000e);\r\n        _createCardBase(0x22000000000000001414000003c00028000280003d0000c0000a);\r\n        _createCardBase(0x130000000a000a000000000012c00046000780002e0007d00013);\r\n        _createCardBase(0x2300000000000000000000000020000100006000050000100002);\r\n        _createCardBase(0x13000a00000000000a0000000c80001900050000520012c0000f);\r\n        _createCardBase(0x230000000a0a0a00000000001900005a0008c000380015e0001e);\r\n        _createCardBase(0x230000000a000000140a00000b40006e0005a000350000600016);\r\n        _createCardBase(0x130000000000000000001e000320000a00082000130000200005);\r\n        _createCardBase(0x130a00000000000000000000014000140000a000030000100018);\r\n        _createCardBase(0x130000000000000000000000028000040000a0000d0000500006);\r\n        _createCardBase(0x13000000000000140000000005a0002300023000780000200009);\r\n        _createCardBase(0x2300000000000000001e00000b400046000640004b000200000c);\r\n        _createCardBase(0x1400000000000000000000000820000c00032000280004600017);\r\n        _createCardBase(0x24000000000000001e0a00000a00003c0003c00070000300000b);\r\n        _createCardBase(0x240000000a0a0000000a00000f0000820006e0003c0004d00018);\r\n        _createCardBase(0x2400000a00000a000000000022600050000320002d009c40002d);\r\n        _createCardBase(0x340000000a0a0a00000000001f400078000c80002a0044c0002f);\r\n        _createCardBase(0x24000a0000000a00000000002580008c000dc000270070800041);\r\n        _createCardBase(0x140000000a0a0000000000000b400064000640000e0018100055);\r\n        _createCardBase(0x241400000000000000000000028000280000a00005000020000b);\r\n        _createCardBase(0x14000a00000000000000000001e0000f000050002e0000600015);\r\n        _createCardBase(0x14000014000000000000000022600028000820002f004e200016);\r\n        _createCardBase(0x25000a0000000a000000000003c0000a000c8000050000300013);\r\n        _createCardBase(0x15000a0000000000000000000fa0001e0003c000080004300032);\r\n        _createCardBase(0x3500140000000000000000001900000a0007800020000b400020);\r\n        _createCardBase(0x150000000000000000000000064000080001e00041000200000e);\r\n        _createCardBase(0x250000000a000a0000000000320000a0000f00002b00fa000043);\r\n        _createCardBase(0x3500141400000000000000000960001900032000060003700023);\r\n        _createCardBase(0x15000000000000000000000000a0000200007000230000100006);\r\n        _createCardBase(0x25000a0000000000000000000080000300005000280000100008);\r\n        _createCardBase(0x2514000000000000000000000780003c00028000070000500012);\r\n        _createCardBase(0x15000a00000000000000000001e0000a0000f0000f000030000e);\r\n        _createCardBase(0x260000000a0a000000000a000960003c0003c000180000700007);\r\n        _createCardBase(0x16000a0000000000000000000320000a0000f000230000200010);\r\n        _createCardBase(0x1600000000000a000a0000000b40003c00096000370004100007);\r\n        _createCardBase(0x16000a00000000000000000001e000050000f000300000a0000d);\r\n        _createCardBase(0x26000a00000000000000000001400005000050000a000020000a);\r\n        _createCardBase(0x160a00000000000000000000028000320001e000040000100008);\r\n        _createCardBase(0x1600000000000000000000000320000a0001400019000020000c);\r\n        _createCardBase(0x1600000000000000000000000500001900028000410000800015);\r\n        _createCardBase(0x16000000000000000000000000a0000100005000030000100003);\r\n        _createCardBase(0x16000a0000000000000000000320000300005000020000800012);\r\n        _createCardBase(0x270000000a000000000000001f400078000320002d01d4c00038);\r\n        _createCardBase(0x17000a0000000000000000002580002800064000130070800013);\r\n        _createCardBase(0x17000a000000000000000000096000050000a000180002500020);\r\n        _createCardBase(0x27000a0000000000000000000280000a0000f000230000500011);\r\n        _createCardBase(0x27000a0000000000000000001900001e000500002c000af00010);\r\n        _createCardBase(0x1700000000000000000000000140001e000140002f0000100007);\r\n        _createCardBase(0x2700000a000000000a000000028000140000a00040000090001a);\r\n        _createCardBase(0x17000a00000000000000000001e0000a00005000120000600011);\r\n        _createCardBase(0x1700000a000000000a00000000a000050000a00028000010000b);\r\n        _createCardBase(0x27000a0000000000000000001f400032000640001d0019000016);\r\n\r\n    }\r\n\r\n    // usuable id between 1 to (n-1)\r\n    function existCardBase(uint256 _baseId) __onlyShared public view returns(bool) {\r\n        if( _baseId > 0 && _baseId <= CardBases.getLength()) {\r\n            return true;\r\n        }\r\n        return false;                \r\n    }\r\n\r\n    // usuable id between 1 to (n-1)\r\n    function getMetadataFromBaseId(uint256 _baseId) __onlyShared public view returns(uint256) {\r\n        if(existCardBase(_baseId)) {\r\n            return CardBases.get(_baseId);\r\n        }\r\n        return 0;\r\n    }\r\n\r\n    //usuable card id starts with 1.\r\n    function _createCardBase(uint256 _metadata) internal{\r\n        uint256 rarity = _metadata.bGetRarity();\r\n        uint256 CardBaseLength = CardBases.getLength();\r\n        RarityIndexs.push(rarity, CardBaseLength);\r\n        CardBases.push(_metadata);\r\n    }\r\n\r\n    // usuable card id starts with 1.\r\n    // __onlyIf_EtherlingsController\r\n    //checking cards passives.\r\n    //note:passives must be <= 30\r\n    function createCardBase(uint256 _metedata) __onlyShared public {\r\n        _createCardBase(_metedata);\r\n    }\r\n\r\n    function randomToBaseIdByRarity(uint256 _random, uint256 _rarity) __onlyShared public view returns (uint256) {\r\n        //index of metedata\r\n        return RarityIndexs.get(_rarity, _random % RarityIndexs.getLength(_rarity));\r\n    }\r\n\r\n    //bir secenek: yendigin rakibin puanina gore al?(search alg degisirse.)\r\n    function randomBaseIdToWinner(address _to, int256 _score, uint256 _count ) public returns (uint256) {\r\n\r\n        //NOTE-1: zamana, kisiye ve isleme bagli degisim var. Bu sayede;\r\n        // farkli zamanlarda farkli kartlar uretilecektir(ayni kisi ve islem icin.).\r\n        // farkli islemlerde farkli kartlar uretilecektir.(ayni kisi ve ayni zaman dilimi icin.).\r\n        // farki kisiler icin farkli kartlar uretilecektir.(ayni zaman dilimi ve ayni islem icin.).\r\n        //NOTE-2: 250 block yaklasik 1 saat yapmakta. Bu sayede brute force ile paket secmek oldukca zahmetli.\r\n        uint256[] memory rnd = new uint256[](2); //last index: random\r\n        rnd[0] = (uint256(keccak256(_to))%10007)*(uint256(keccak256(_count))%10009); //kisiye bagli degisim*isleme bagli degisim\r\n        rnd[1] = uint256(keccak256(block.blockhash( (block.number/250 )*250 )))%10037;//zamana bagli degisim\r\n\r\n        //1. card    \r\n        rnd[0] = uint256(keccak256(rnd[0] * rnd[1]))%1000000000; \r\n        rnd[1] = uint256(_score);\r\n        if(rnd[1] < 1600) {\r\n            rnd[1] = 1;\r\n        } else if(rnd[1] < 2400) {\r\n            rnd[1] = rnd[0] % 100;\r\n            if(rnd[1] < 70) {\r\n            rnd[1] = 1;\r\n            } else if(rnd[1] < 95) {\r\n            rnd[1] = 2;        \r\n            } else {\r\n            rnd[1] = 3;        \r\n            }\r\n        } else {\r\n            rnd[1] = rnd[0] % 100;\r\n            if(rnd[1] < 60) {\r\n            rnd[1] = 1;\r\n            } else if(rnd[1] < 90) {\r\n            rnd[1] = 2;        \r\n            } else {\r\n            rnd[1] = 3;        \r\n            }\r\n        }\r\n        return randomToBaseIdByRarity(rnd[0], rnd[1]); //baseid -> common\r\n    }\r\n\r\n}",
  "sourcePath": "C:\\wildalo\\wildalo-contract-dev\\contracts\\CardBase.sol",
  "compiler": {
    "name": "solc",
    "version": "0.4.25+commit.59dbf8f1.Emscripten.clang"
  },
  "schemaVersion": "3.4.5",
  "updatedAt": "2022-07-03T12:55:47.957Z",
  "networkType": "ethereum",
  "devdoc": {
    "methods": {}
  },
  "userdoc": {
    "methods": {}
  }
}