{
  "contractName": "ERC721Receiver",
  "abi": [
    {
      "constant": false,
      "inputs": [
        {
          "name": "_from",
          "type": "address"
        },
        {
          "name": "_tokenId",
          "type": "uint256"
        },
        {
          "name": "_data",
          "type": "bytes"
        }
      ],
      "name": "onERC721Received",
      "outputs": [
        {
          "name": "",
          "type": "bytes4"
        }
      ],
      "payable": false,
      "stateMutability": "nonpayable",
      "type": "function"
    }
  ],
  "bytecode": "0x608060405234801561001057600080fd5b50610186806100206000396000f300608060405260043610610041576000357c0100000000000000000000000000000000000000000000000000000000900463ffffffff168063f0b9e5ba14610046575b600080fd5b34801561005257600080fd5b506100d7600480360381019080803573ffffffffffffffffffffffffffffffffffffffff16906020019092919080359060200190929190803590602001908201803590602001908080601f016020809104026020016040519081016040528093929190818152602001838380828437820191505050505050919291929050505061012b565b60405180827bffffffffffffffffffffffffffffffffffffffffffffffffffffffff19167bffffffffffffffffffffffffffffffffffffffffffffffffffffffff1916815260200191505060405180910390f35b600063f0b9e5ba7c010000000000000000000000000000000000000000000000000000000002905093925050505600a165627a7a72305820c643fc0eed83c3ea6a85057ad9e6ab50beb38fbbb4cd537f998d4beed553d8e50029",
  "source": "pragma solidity ^0.4.25;\r\n\r\nimport \"./Interfaces.sol\";\r\nimport \"./Helpers.sol\";\r\nimport \"./Enums.sol\";\r\n\r\nimport \"./Libs.sol\";\r\n\r\ncontract ERC721BasicToken is ERC721Basic {\r\n    using SafeMath for uint256;\r\n    using AddressUtils for address;\r\n\r\n    bytes4 constant ERC721_RECEIVED = 0xf0b9e5ba;\r\n\r\n    string internal tokenURI_ = \"\";\r\n\r\n    // Mapping from token ID to owner\r\n    mapping(uint256 => address) internal tokenOwner;\r\n\r\n    // Mapping from token ID to approved address\r\n    mapping(uint256 => address) internal tokenApprovals;\r\n\r\n    // Mapping from owner to number of owned token\r\n    mapping(address => uint256) internal ownedTokensCount;\r\n\r\n    // Mapping from owner to operator approvals\r\n    mapping(address => mapping(address => bool)) internal operatorApprovals;\r\n\r\n    modifier onlyOwnerOf(uint256 _tokenId) {\r\n        require(ownerOf(_tokenId) == msg.sender);\r\n        _;\r\n    }\r\n\r\n    modifier canTransfer(uint256 _tokenId) {\r\n        require(isApprovedOrOwner(msg.sender, _tokenId));\r\n        _;\r\n    }\r\n\r\n    function _appendUintToString(string inStr, uint v) internal pure returns (string str) {\r\n        uint maxlength = 100;\r\n        bytes memory reversed = new bytes(maxlength);\r\n        uint i = 0;\r\n        while (v != 0) {\r\n            uint remainder = v % 10;\r\n            v = v / 10;\r\n            reversed[i++] = byte(48 + remainder);\r\n        }\r\n        bytes memory inStrb = bytes(inStr);\r\n        bytes memory s = new bytes(inStrb.length + i);\r\n        uint j;\r\n        for (j = 0; j < inStrb.length; j++) {\r\n            s[j] = inStrb[j];\r\n        }\r\n        for (j = 0; j < i; j++) {\r\n            s[j + inStrb.length] = reversed[i - 1 - j];\r\n        }\r\n        str = string(s);\r\n    }\r\n\r\n    function tokenURI(uint256 _tokenId) external view returns(string) {\r\n        return _appendUintToString(tokenURI_, _tokenId);\r\n    }\r\n\r\n    function balanceOf(address _owner) public view returns (uint256) {\r\n        require(_owner != address(0));\r\n        return ownedTokensCount[_owner];\r\n    }\r\n\r\n    function ownerOf(uint256 _tokenId) public view returns (address) {\r\n        address owner = tokenOwner[_tokenId];\r\n        require(owner != address(0));\r\n        return owner;\r\n    }\r\n\r\n    function exists(uint256 _tokenId) public view returns (bool) {\r\n        address owner = tokenOwner[_tokenId];\r\n        return owner != address(0);\r\n    }\r\n\r\n    function approve(address _to, uint256 _tokenId) public {\r\n        address owner = ownerOf(_tokenId);\r\n        require(_to != owner);\r\n        require(msg.sender == owner || isApprovedForAll(owner, msg.sender));\r\n\r\n        if (getApproved(_tokenId) != address(0) || _to != address(0)) {\r\n            tokenApprovals[_tokenId] = _to;\r\n            emit Approval(owner, _to, _tokenId);\r\n        }\r\n    }\r\n\r\n    function getApproved(uint256 _tokenId) public view returns (address) {\r\n        return tokenApprovals[_tokenId];\r\n    }\r\n\r\n    function setApprovalForAll(address _to, bool _approved) public {\r\n        require(_to != msg.sender);\r\n        operatorApprovals[msg.sender][_to] = _approved;\r\n        emit ApprovalForAll(msg.sender, _to, _approved);\r\n    }\r\n\r\n    function isApprovedForAll(address _owner, address _operator)\r\n        public\r\n        view\r\n        returns (bool)\r\n    {\r\n        return operatorApprovals[_owner][_operator];\r\n    }\r\n\r\n    function transferFrom(\r\n        address _from,\r\n        address _to,\r\n        uint256 _tokenId\r\n    ) public canTransfer(_tokenId) {\r\n        require(_from != address(0));\r\n        require(_to != address(0));\r\n\r\n        clearApproval(_from, _tokenId);\r\n        removeTokenFrom(_from, _tokenId);\r\n        addTokenTo(_to, _tokenId);\r\n\r\n        emit Transfer(_from, _to, _tokenId);\r\n    }\r\n\r\n    function safeTransferFrom(\r\n        address _from,\r\n        address _to,\r\n        uint256 _tokenId\r\n    ) public canTransfer(_tokenId) {\r\n        safeTransferFrom(_from, _to, _tokenId, \"\");\r\n    }\r\n\r\n    function safeTransferFrom(\r\n        address _from,\r\n        address _to,\r\n        uint256 _tokenId,\r\n        bytes _data\r\n    ) public canTransfer(_tokenId) {\r\n        transferFrom(_from, _to, _tokenId);\r\n        require(checkAndCallSafeTransfer(_from, _to, _tokenId, _data));\r\n    }\r\n\r\n    function isApprovedOrOwner(address _spender, uint256 _tokenId)\r\n        internal\r\n        view\r\n        returns (bool)\r\n    {\r\n        address owner = ownerOf(_tokenId);\r\n        return\r\n            _spender == owner ||\r\n            getApproved(_tokenId) == _spender ||\r\n            isApprovedForAll(owner, _spender);\r\n    }\r\n\r\n    function _mint(address _to, uint256 _tokenId) internal {\r\n        require(_to != address(0));\r\n        addTokenTo(_to, _tokenId);\r\n        emit Transfer(address(0), _to, _tokenId);\r\n    }\r\n\r\n    function _burn(address _owner, uint256 _tokenId) internal {\r\n        clearApproval(_owner, _tokenId);\r\n        removeTokenFrom(_owner, _tokenId);\r\n        emit Transfer(_owner, address(0), _tokenId);\r\n    }\r\n\r\n    function clearApproval(address _owner, uint256 _tokenId) internal {\r\n        require(ownerOf(_tokenId) == _owner);\r\n        if (tokenApprovals[_tokenId] != address(0)) {\r\n            tokenApprovals[_tokenId] = address(0);\r\n            emit Approval(_owner, address(0), _tokenId);\r\n        }\r\n    }\r\n\r\n    function addTokenTo(address _to, uint256 _tokenId) internal {\r\n        require(tokenOwner[_tokenId] == address(0));\r\n        tokenOwner[_tokenId] = _to;\r\n        ownedTokensCount[_to] = ownedTokensCount[_to].add(1);\r\n    }\r\n\r\n    function removeTokenFrom(address _from, uint256 _tokenId) internal {\r\n        require(ownerOf(_tokenId) == _from);\r\n        ownedTokensCount[_from] = ownedTokensCount[_from].sub(1);\r\n        tokenOwner[_tokenId] = address(0);\r\n    }\r\n\r\n    function checkAndCallSafeTransfer(\r\n        address _from,\r\n        address _to,\r\n        uint256 _tokenId,\r\n        bytes _data\r\n    ) internal returns (bool) {\r\n        if (!_to.isContract()) {\r\n            return true;\r\n        }\r\n        bytes4 retval = ERC721Receiver(_to).onERC721Received(\r\n            _from,\r\n            _tokenId,\r\n            _data\r\n        );\r\n        return (retval == ERC721_RECEIVED);\r\n    }\r\n}\r\n\r\ncontract ERC721Receiver is IERC721Receiver{\r\n    bytes4 constant ERC721_RECEIVED = 0xf0b9e5ba;\r\n\r\n    function onERC721Received(\r\n        address _from,\r\n        uint256 _tokenId,\r\n        bytes _data\r\n    ) public returns (bytes4) {\r\n        return ERC721_RECEIVED;\r\n    }\r\n}\r\n\r\n//Etherlings ERC721Token\r\ncontract WildaloERC721 is IWildaloERC721, ERC721BasicToken, Shared {\r\n    // Token name\r\n    string internal name_;\r\n\r\n    // Token symbol\r\n    string internal symbol_;\r\n\r\n    // Mapping from owner to list of owned token IDs\r\n    mapping(address => uint256[]) internal ownedTokens;\r\n    // Mapping from token ID to index of the owner tokens list\r\n    mapping(uint256 => uint256) internal ownedTokensIndex;\r\n\r\n    // Array with all token ids, used for enumeration\r\n    uint256[] internal allTokens;\r\n    // Mapping from token id to position in the allTokens array\r\n    mapping(uint256 => uint256) internal allTokensIndex;\r\n\r\n    constructor() public {\r\n        name_ = \"Wildalo Token\";\r\n        symbol_ = \"Wildalo Symbol\";\r\n        tokenURI_ = \"https://wildalo//nft/tokenId\";\r\n    }\r\n\r\n    function name() public view returns (string) {\r\n        return name_;\r\n    }\r\n\r\n    function symbol() public view returns (string) {\r\n        return symbol_;\r\n    }\r\n\r\n    function setTokenURI(string _tokenURI) __onlyOwner public returns (string) {\r\n        tokenURI_ = _tokenURI;\r\n    }\r\n\r\n    function tokenOfOwnerByIndex(address _owner, uint256 _index)\r\n        public\r\n        view\r\n        returns (uint256)\r\n    {\r\n        require(_index < balanceOf(_owner));\r\n        return ownedTokens[_owner][_index];\r\n    }\r\n\r\n    function totalSupply() public view returns (uint256) {\r\n        return allTokens.length;\r\n    }\r\n\r\n    function tokenByIndex(uint256 _index) public view returns (uint256) {\r\n        require(_index < totalSupply());\r\n        return allTokens[_index];\r\n    }\r\n\r\n    function addTokenTo(address _to, uint256 _tokenId) internal {\r\n        super.addTokenTo(_to, _tokenId);\r\n        uint256 length = ownedTokens[_to].length;\r\n        ownedTokens[_to].push(_tokenId);\r\n        ownedTokensIndex[_tokenId] = length;\r\n    }\r\n\r\n    function removeTokenFrom(address _from, uint256 _tokenId) internal {\r\n        super.removeTokenFrom(_from, _tokenId);\r\n\r\n        uint256 tokenIndex = ownedTokensIndex[_tokenId];\r\n        uint256 lastTokenIndex = ownedTokens[_from].length.sub(1);\r\n        uint256 lastToken = ownedTokens[_from][lastTokenIndex];\r\n\r\n        ownedTokens[_from][tokenIndex] = lastToken;\r\n        ownedTokens[_from][lastTokenIndex] = 0;\r\n\r\n        ownedTokens[_from].length--;\r\n        ownedTokensIndex[_tokenId] = 0;\r\n        ownedTokensIndex[lastToken] = tokenIndex;\r\n    }\r\n\r\n    function _burn(uint256 _tokenId) internal {\r\n        super._burn(msg.sender, _tokenId);\r\n\r\n        // Reorg all tokens array\r\n        uint256 tokenIndex = allTokensIndex[_tokenId];\r\n        uint256 lastTokenIndex = allTokens.length.sub(1);\r\n        uint256 lastToken = allTokens[lastTokenIndex];\r\n\r\n        allTokens[tokenIndex] = lastToken;\r\n        allTokens[lastTokenIndex] = 0;\r\n\r\n        allTokens.length--;\r\n        allTokensIndex[_tokenId] = 0;\r\n        allTokensIndex[lastToken] = tokenIndex;\r\n    }\r\n\r\n    function mint(address _to, uint256 _tokenId) public __onlyShared {\r\n        super._mint(_to, _tokenId);\r\n        allTokensIndex[_tokenId] = allTokens.length;\r\n        allTokens.push(_tokenId);\r\n        emit Mint(_to, _tokenId);\r\n    }\r\n}\r\n",
  "sourcePath": "C:\\wildalo\\wildalo-contract-dev\\contracts\\WildaloERC721.sol",
  "compiler": {
    "name": "solc",
    "version": "0.4.25+commit.59dbf8f1.Emscripten.clang"
  },
  "schemaVersion": "3.4.5",
  "updatedAt": "2022-07-03T12:50:42.328Z",
  "devdoc": {
    "methods": {}
  },
  "userdoc": {
    "methods": {}
  }
}