{
  "contractName": "Settings",
  "abi": [
    {
      "constant": false,
      "inputs": [
        {
          "name": "_adminAddress",
          "type": "address"
        }
      ],
      "name": "setAdminAddress",
      "outputs": [],
      "payable": false,
      "stateMutability": "nonpayable",
      "type": "function"
    },
    {
      "constant": false,
      "inputs": [],
      "name": "acceptOwnership",
      "outputs": [],
      "payable": false,
      "stateMutability": "nonpayable",
      "type": "function"
    },
    {
      "constant": true,
      "inputs": [],
      "name": "owner",
      "outputs": [
        {
          "name": "",
          "type": "address"
        }
      ],
      "payable": false,
      "stateMutability": "view",
      "type": "function"
    },
    {
      "constant": true,
      "inputs": [],
      "name": "newOwner",
      "outputs": [
        {
          "name": "",
          "type": "address"
        }
      ],
      "payable": false,
      "stateMutability": "view",
      "type": "function"
    },
    {
      "constant": false,
      "inputs": [
        {
          "name": "_newOwner",
          "type": "address"
        }
      ],
      "name": "transferOwnership",
      "outputs": [],
      "payable": false,
      "stateMutability": "nonpayable",
      "type": "function"
    },
    {
      "inputs": [],
      "payable": false,
      "stateMutability": "nonpayable",
      "type": "constructor"
    },
    {
      "anonymous": false,
      "inputs": [
        {
          "indexed": true,
          "name": "_from",
          "type": "address"
        },
        {
          "indexed": true,
          "name": "_to",
          "type": "address"
        }
      ],
      "name": "OwnershipTransferred",
      "type": "event"
    },
    {
      "constant": true,
      "inputs": [],
      "name": "getSystemUser",
      "outputs": [
        {
          "name": "",
          "type": "address"
        }
      ],
      "payable": false,
      "stateMutability": "view",
      "type": "function"
    },
    {
      "constant": false,
      "inputs": [
        {
          "name": "_systemUser",
          "type": "address"
        }
      ],
      "name": "setSystemUser",
      "outputs": [],
      "payable": false,
      "stateMutability": "nonpayable",
      "type": "function"
    },
    {
      "constant": true,
      "inputs": [],
      "name": "getPaused",
      "outputs": [
        {
          "name": "",
          "type": "bool"
        }
      ],
      "payable": false,
      "stateMutability": "view",
      "type": "function"
    },
    {
      "constant": false,
      "inputs": [
        {
          "name": "_paused",
          "type": "bool"
        }
      ],
      "name": "setPaused",
      "outputs": [],
      "payable": false,
      "stateMutability": "nonpayable",
      "type": "function"
    },
    {
      "constant": true,
      "inputs": [],
      "name": "getBidDiscountPercent",
      "outputs": [
        {
          "name": "",
          "type": "uint256"
        }
      ],
      "payable": false,
      "stateMutability": "view",
      "type": "function"
    },
    {
      "constant": false,
      "inputs": [
        {
          "name": "_bidDiscountPercent",
          "type": "uint256"
        }
      ],
      "name": "setBidDiscountPercent",
      "outputs": [],
      "payable": false,
      "stateMutability": "nonpayable",
      "type": "function"
    },
    {
      "constant": true,
      "inputs": [],
      "name": "getFodrDiscountPercent",
      "outputs": [
        {
          "name": "",
          "type": "uint256"
        }
      ],
      "payable": false,
      "stateMutability": "view",
      "type": "function"
    },
    {
      "constant": false,
      "inputs": [
        {
          "name": "_fodrDiscountPercent",
          "type": "uint256"
        }
      ],
      "name": "setFodrDiscountPercent",
      "outputs": [],
      "payable": false,
      "stateMutability": "nonpayable",
      "type": "function"
    },
    {
      "constant": true,
      "inputs": [],
      "name": "getFodrBurningCountOnUpdate",
      "outputs": [
        {
          "name": "",
          "type": "uint256"
        }
      ],
      "payable": false,
      "stateMutability": "view",
      "type": "function"
    },
    {
      "constant": false,
      "inputs": [
        {
          "name": "_fodrBurningCountOnUpdate",
          "type": "uint256"
        }
      ],
      "name": "setFodrBurningCountOnUpdate",
      "outputs": [],
      "payable": false,
      "stateMutability": "nonpayable",
      "type": "function"
    },
    {
      "constant": true,
      "inputs": [
        {
          "name": "_packageType",
          "type": "uint256"
        }
      ],
      "name": "getPackagePrice",
      "outputs": [
        {
          "name": "",
          "type": "uint256"
        }
      ],
      "payable": false,
      "stateMutability": "view",
      "type": "function"
    },
    {
      "constant": false,
      "inputs": [
        {
          "name": "_packageType",
          "type": "uint256"
        },
        {
          "name": "_packagePrice",
          "type": "uint256"
        }
      ],
      "name": "setPackagePrice",
      "outputs": [],
      "payable": false,
      "stateMutability": "nonpayable",
      "type": "function"
    },
    {
      "constant": true,
      "inputs": [
        {
          "name": "_currencyType",
          "type": "uint256"
        }
      ],
      "name": "getPriceCurrencyMultiplier",
      "outputs": [
        {
          "name": "",
          "type": "uint256"
        }
      ],
      "payable": false,
      "stateMutability": "view",
      "type": "function"
    },
    {
      "constant": false,
      "inputs": [
        {
          "name": "_currencyType",
          "type": "uint256"
        },
        {
          "name": "_priceCurrencyMultiplier",
          "type": "uint256"
        }
      ],
      "name": "setPriceCurrencyMultiplier",
      "outputs": [],
      "payable": false,
      "stateMutability": "nonpayable",
      "type": "function"
    }
  ],
  "bytecode": "0x608060405234801561001057600080fd5b50336000806101000a81548173ffffffffffffffffffffffffffffffffffffffff021916908373ffffffffffffffffffffffffffffffffffffffff1602179055506000600360146101000a81548160ff0219169083151502179055506101c26004819055506103e860058190555064e8d4a51000600681905550620186a060076000600181526020019081526020016000208190555062030d40600760006002815260200190815260200160002081905550620493e060076000600381526020019081526020016000208190555060016008600060018152602001908152602001600020819055506064600860006002815260200190815260200160002081905550610daa806101216000396000f300608060405260043610610107576000357c0100000000000000000000000000000000000000000000000000000000900463ffffffff1680630741d9c71461010c57806311a0ed9b1461013957806315f897911461017a57806316c38b3c146101a55780631a89c441146101d45780632c1e816d1461020b5780633af5cf181461024e57806345a99a04146102795780636805b84b146102a657806379ba5097146102d55780637fe0e21c146102ec5780638da5cb5b14610319578063b715f6b314610370578063cb8a6993146103b3578063d4ee1d90146103de578063de68a5e914610435578063e24af0411461048c578063f2fde38b146104cd578063f48d07f714610510575b600080fd5b34801561011857600080fd5b5061013760048036038101908080359060200190929190505050610547565b005b34801561014557600080fd5b50610164600480360381019080803590602001909291905050506105ad565b6040518082815260200191505060405180910390f35b34801561018657600080fd5b5061018f6105ca565b6040518082815260200191505060405180910390f35b3480156101b157600080fd5b506101d26004803603810190808035151590602001909291905050506105d4565b005b3480156101e057600080fd5b50610209600480360381019080803590602001909291908035906020019092919050505061064d565b005b34801561021757600080fd5b5061024c600480360381019080803573ffffffffffffffffffffffffffffffffffffffff1690602001909291905050506106c5565b005b34801561025a57600080fd5b506102636107cd565b6040518082815260200191505060405180910390f35b34801561028557600080fd5b506102a4600480360381019080803590602001909291905050506107d7565b005b3480156102b257600080fd5b506102bb61083d565b604051808215151515815260200191505060405180910390f35b3480156102e157600080fd5b506102ea610854565b005b3480156102f857600080fd5b5061031760048036038101908080359060200190929190505050610a5c565b005b34801561032557600080fd5b5061032e610ac2565b604051808273ffffffffffffffffffffffffffffffffffffffff1673ffffffffffffffffffffffffffffffffffffffff16815260200191505060405180910390f35b34801561037c57600080fd5b506103b1600480360381019080803573ffffffffffffffffffffffffffffffffffffffff169060200190929190505050610ae7565b005b3480156103bf57600080fd5b506103c8610b87565b6040518082815260200191505060405180910390f35b3480156103ea57600080fd5b506103f3610b91565b604051808273ffffffffffffffffffffffffffffffffffffffff1673ffffffffffffffffffffffffffffffffffffffff16815260200191505060405180910390f35b34801561044157600080fd5b5061044a610bb7565b604051808273ffffffffffffffffffffffffffffffffffffffff1673ffffffffffffffffffffffffffffffffffffffff16815260200191505060405180910390f35b34801561049857600080fd5b506104b760048036038101908080359060200190929190505050610be1565b6040518082815260200191505060405180910390f35b3480156104d957600080fd5b5061050e600480360381019080803573ffffffffffffffffffffffffffffffffffffffff169060200190929190505050610bfe565b005b34801561051c57600080fd5b506105456004803603810190808035906020019092919080359060200190929190505050610d06565b005b600260009054906101000a900473ffffffffffffffffffffffffffffffffffffffff1673ffffffffffffffffffffffffffffffffffffffff163373ffffffffffffffffffffffffffffffffffffffff161415156105a357600080fd5b8060048190555050565b600060076000838152602001908152602001600020549050919050565b6000600654905090565b600260009054906101000a900473ffffffffffffffffffffffffffffffffffffffff1673ffffffffffffffffffffffffffffffffffffffff163373ffffffffffffffffffffffffffffffffffffffff1614151561063057600080fd5b80600360146101000a81548160ff02191690831515021790555050565b600260009054906101000a900473ffffffffffffffffffffffffffffffffffffffff1673ffffffffffffffffffffffffffffffffffffffff163373ffffffffffffffffffffffffffffffffffffffff161415156106a957600080fd5b8060086000848152602001908152602001600020819055505050565b6000809054906101000a900473ffffffffffffffffffffffffffffffffffffffff1673ffffffffffffffffffffffffffffffffffffffff163373ffffffffffffffffffffffffffffffffffffffff16141515610789576040517f08c379a000000000000000000000000000000000000000000000000000000000815260040180806020018281038252600b8152602001807f4f776e65643a206572723100000000000000000000000000000000000000000081525060200191505060405180910390fd5b80600260006101000a81548173ffffffffffffffffffffffffffffffffffffffff021916908373ffffffffffffffffffffffffffffffffffffffff16021790555050565b6000600554905090565b600260009054906101000a900473ffffffffffffffffffffffffffffffffffffffff1673ffffffffffffffffffffffffffffffffffffffff163373ffffffffffffffffffffffffffffffffffffffff1614151561083357600080fd5b8060058190555050565b6000600360149054906101000a900460ff16905090565b600160009054906101000a900473ffffffffffffffffffffffffffffffffffffffff1673ffffffffffffffffffffffffffffffffffffffff163373ffffffffffffffffffffffffffffffffffffffff16141515610919576040517f08c379a000000000000000000000000000000000000000000000000000000000815260040180806020018281038252600b8152602001807f4f776e65643a206572723200000000000000000000000000000000000000000081525060200191505060405180910390fd5b600160009054906101000a900473ffffffffffffffffffffffffffffffffffffffff1673ffffffffffffffffffffffffffffffffffffffff166000809054906101000a900473ffffffffffffffffffffffffffffffffffffffff1673ffffffffffffffffffffffffffffffffffffffff167f8be0079c531659141344cd1fd0a4f28419497f9722a3daafe3b4186f6b6457e060405160405180910390a3600160009054906101000a900473ffffffffffffffffffffffffffffffffffffffff166000806101000a81548173ffffffffffffffffffffffffffffffffffffffff021916908373ffffffffffffffffffffffffffffffffffffffff1602179055506000600160006101000a81548173ffffffffffffffffffffffffffffffffffffffff021916908373ffffffffffffffffffffffffffffffffffffffff160217905550565b600260009054906101000a900473ffffffffffffffffffffffffffffffffffffffff1673ffffffffffffffffffffffffffffffffffffffff163373ffffffffffffffffffffffffffffffffffffffff16141515610ab857600080fd5b8060068190555050565b6000809054906101000a900473ffffffffffffffffffffffffffffffffffffffff1681565b600260009054906101000a900473ffffffffffffffffffffffffffffffffffffffff1673ffffffffffffffffffffffffffffffffffffffff163373ffffffffffffffffffffffffffffffffffffffff16141515610b4357600080fd5b80600360006101000a81548173ffffffffffffffffffffffffffffffffffffffff021916908373ffffffffffffffffffffffffffffffffffffffff16021790555050565b6000600454905090565b600160009054906101000a900473ffffffffffffffffffffffffffffffffffffffff1681565b6000600360009054906101000a900473ffffffffffffffffffffffffffffffffffffffff16905090565b600060086000838152602001908152602001600020549050919050565b6000809054906101000a900473ffffffffffffffffffffffffffffffffffffffff1673ffffffffffffffffffffffffffffffffffffffff163373ffffffffffffffffffffffffffffffffffffffff16141515610cc2576040517f08c379a000000000000000000000000000000000000000000000000000000000815260040180806020018281038252600b8152602001807f4f776e65643a206572723100000000000000000000000000000000000000000081525060200191505060405180910390fd5b80600160006101000a81548173ffffffffffffffffffffffffffffffffffffffff021916908373ffffffffffffffffffffffffffffffffffffffff16021790555050565b600260009054906101000a900473ffffffffffffffffffffffffffffffffffffffff1673ffffffffffffffffffffffffffffffffffffffff163373ffffffffffffffffffffffffffffffffffffffff16141515610d6257600080fd5b80600760008481526020019081526020016000208190555050505600a165627a7a723058208667a06af4c610210746e94e4b23c37b5245079d574f755c40c62d92f6dfce400029",
  "source": "pragma solidity ^ 0.4.25;\r\n\r\nimport './Interfaces.sol';\r\nimport './Helpers.sol';\r\nimport './Libs.sol';\r\n\r\ncontract Settings is ISettings, HasAdminController {\r\n    using SafeMath for uint256;\r\n\r\n    address systemUser;\r\n\r\n    bool paused;\r\n\r\n    uint256 bidDiscountPercent;\r\n    uint256 fodrDiscountPercent;\r\n    uint256 fodrBurningCountOnUpdate;\r\n    mapping(uint256 => uint256) packagePrices;\r\n    mapping(uint256 => uint256) priceCurrencyMultiplier;\r\n\r\n\r\n    constructor() public {\r\n        paused = false;\r\n        bidDiscountPercent = 450; //%4.5\r\n        fodrDiscountPercent = 1000; //%10\r\n        fodrBurningCountOnUpdate = 1000000000000;\r\n        packagePrices[1] = 100000;\r\n        packagePrices[2] = 200000;\r\n        packagePrices[3] = 300000;\r\n        priceCurrencyMultiplier[1] = 1;\r\n        priceCurrencyMultiplier[2] = 100;\r\n\r\n    }\r\n\r\n    //systemUser\r\n    function getSystemUser() public view returns(address) {\r\n        return systemUser;\r\n    }\r\n\r\n    function setSystemUser(address _systemUser) __onlyAdmin public {\r\n        systemUser = _systemUser;\r\n    }\r\n\r\n    //paused\r\n    function getPaused() public view returns(bool) {\r\n        return paused;\r\n    }\r\n\r\n    function setPaused(bool _paused) __onlyAdmin public {\r\n        paused = _paused;\r\n    }\r\n\r\n    //bidDiscountPercent\r\n    function getBidDiscountPercent() public view returns(uint256) {\r\n        return bidDiscountPercent;\r\n    }\r\n\r\n    function setBidDiscountPercent(uint256 _bidDiscountPercent) __onlyAdmin public {\r\n        bidDiscountPercent = _bidDiscountPercent;\r\n    }\r\n\r\n    //fodrDiscountPercent\r\n    function getFodrDiscountPercent() public view returns(uint256) {\r\n        return fodrDiscountPercent;\r\n    }\r\n\r\n    function setFodrDiscountPercent(uint256 _fodrDiscountPercent) __onlyAdmin public {\r\n        fodrDiscountPercent = _fodrDiscountPercent;\r\n    }\r\n\r\n    //fodrBurningCountOnUpdate\r\n    function getFodrBurningCountOnUpdate() public view returns(uint256) {\r\n        return fodrBurningCountOnUpdate;\r\n    }\r\n\r\n    function setFodrBurningCountOnUpdate(uint256 _fodrBurningCountOnUpdate) __onlyAdmin public {\r\n        fodrBurningCountOnUpdate = _fodrBurningCountOnUpdate;\r\n    }\r\n\r\n    //packagePrices\r\n    function getPackagePrice(uint256 _packageType) public view returns(uint256) {\r\n        return packagePrices[_packageType];\r\n    }\r\n\r\n    function setPackagePrice(uint256 _packageType, uint256 _packagePrice) __onlyAdmin public {\r\n        packagePrices[_packageType] = _packagePrice;\r\n    }\r\n\r\n    //priceCurrencyMultiplier\r\n    function getPriceCurrencyMultiplier(uint256 _currencyType) public view returns(uint256) {\r\n        return priceCurrencyMultiplier[_currencyType];\r\n    }\r\n\r\n    function setPriceCurrencyMultiplier(uint256 _currencyType, uint256 _priceCurrencyMultiplier) __onlyAdmin public {\r\n        priceCurrencyMultiplier[_currencyType] = _priceCurrencyMultiplier;\r\n    }\r\n\r\n}",
  "sourcePath": "C:\\wildalo\\wildalo-contract-dev\\contracts\\Settings.sol",
  "compiler": {
    "name": "solc",
    "version": "0.4.25+commit.59dbf8f1.Emscripten.clang"
  },
  "schemaVersion": "3.4.5",
  "updatedAt": "2022-07-03T12:55:48.002Z",
  "networkType": "ethereum",
  "devdoc": {
    "methods": {}
  },
  "userdoc": {
    "methods": {}
  }
}