{
  "contractName": "SharedArrayUint256",
  "abi": [
    {
      "constant": true,
      "inputs": [],
      "name": "isLinked",
      "outputs": [
        {
          "name": "",
          "type": "bool"
        }
      ],
      "payable": false,
      "stateMutability": "view",
      "type": "function"
    },
    {
      "constant": true,
      "inputs": [
        {
          "name": "_address",
          "type": "address"
        }
      ],
      "name": "isSharedWith",
      "outputs": [
        {
          "name": "",
          "type": "bool"
        }
      ],
      "payable": false,
      "stateMutability": "view",
      "type": "function"
    },
    {
      "constant": false,
      "inputs": [
        {
          "name": "_address",
          "type": "address"
        },
        {
          "name": "_isShared",
          "type": "bool"
        },
        {
          "name": "_linked",
          "type": "bool"
        }
      ],
      "name": "setSharingWith",
      "outputs": [],
      "payable": false,
      "stateMutability": "nonpayable",
      "type": "function"
    },
    {
      "constant": false,
      "inputs": [],
      "name": "acceptOwnership",
      "outputs": [],
      "payable": false,
      "stateMutability": "nonpayable",
      "type": "function"
    },
    {
      "constant": true,
      "inputs": [],
      "name": "owner",
      "outputs": [
        {
          "name": "",
          "type": "address"
        }
      ],
      "payable": false,
      "stateMutability": "view",
      "type": "function"
    },
    {
      "constant": true,
      "inputs": [],
      "name": "newOwner",
      "outputs": [
        {
          "name": "",
          "type": "address"
        }
      ],
      "payable": false,
      "stateMutability": "view",
      "type": "function"
    },
    {
      "constant": false,
      "inputs": [
        {
          "name": "_newOwner",
          "type": "address"
        }
      ],
      "name": "transferOwnership",
      "outputs": [],
      "payable": false,
      "stateMutability": "nonpayable",
      "type": "function"
    },
    {
      "anonymous": false,
      "inputs": [
        {
          "indexed": true,
          "name": "_from",
          "type": "address"
        },
        {
          "indexed": true,
          "name": "_to",
          "type": "address"
        }
      ],
      "name": "OwnershipTransferred",
      "type": "event"
    },
    {
      "constant": true,
      "inputs": [
        {
          "name": "_targetData",
          "type": "uint256"
        },
        {
          "name": "_index",
          "type": "uint256"
        }
      ],
      "name": "get",
      "outputs": [
        {
          "name": "",
          "type": "uint256"
        }
      ],
      "payable": false,
      "stateMutability": "view",
      "type": "function"
    },
    {
      "constant": true,
      "inputs": [
        {
          "name": "_index",
          "type": "uint256"
        }
      ],
      "name": "get",
      "outputs": [
        {
          "name": "",
          "type": "uint256"
        }
      ],
      "payable": false,
      "stateMutability": "view",
      "type": "function"
    },
    {
      "constant": false,
      "inputs": [
        {
          "name": "_index",
          "type": "uint256"
        },
        {
          "name": "_data",
          "type": "uint256"
        }
      ],
      "name": "set",
      "outputs": [],
      "payable": false,
      "stateMutability": "nonpayable",
      "type": "function"
    },
    {
      "constant": false,
      "inputs": [
        {
          "name": "_targetData",
          "type": "uint256"
        },
        {
          "name": "_index",
          "type": "uint256"
        },
        {
          "name": "_data",
          "type": "uint256"
        }
      ],
      "name": "set",
      "outputs": [],
      "payable": false,
      "stateMutability": "nonpayable",
      "type": "function"
    },
    {
      "constant": false,
      "inputs": [
        {
          "name": "_data",
          "type": "uint256"
        }
      ],
      "name": "push",
      "outputs": [],
      "payable": false,
      "stateMutability": "nonpayable",
      "type": "function"
    },
    {
      "constant": false,
      "inputs": [
        {
          "name": "_targetData",
          "type": "uint256"
        },
        {
          "name": "_data",
          "type": "uint256"
        }
      ],
      "name": "push",
      "outputs": [],
      "payable": false,
      "stateMutability": "nonpayable",
      "type": "function"
    },
    {
      "constant": true,
      "inputs": [
        {
          "name": "_targetData",
          "type": "uint256"
        }
      ],
      "name": "getLength",
      "outputs": [
        {
          "name": "",
          "type": "uint256"
        }
      ],
      "payable": false,
      "stateMutability": "view",
      "type": "function"
    },
    {
      "constant": true,
      "inputs": [],
      "name": "getLength",
      "outputs": [
        {
          "name": "",
          "type": "uint256"
        }
      ],
      "payable": false,
      "stateMutability": "view",
      "type": "function"
    }
  ],
  "bytecode": "0x6080604052336000806101000a81548173ffffffffffffffffffffffffffffffffffffffff021916908373ffffffffffffffffffffffffffffffffffffffff1602179055506001600260003373ffffffffffffffffffffffffffffffffffffffff1673ffffffffffffffffffffffffffffffffffffffff16815260200190815260200160002060006101000a81548160ff021916908315150217905550610e18806100ab6000396000f3006080604052600436106100db576000357c0100000000000000000000000000000000000000000000000000000000900463ffffffff1680630986e647146100e057806309fa1f90146101215780631ab06ee51461015057806338eef0471461018757806343b0e8df146101e2578063558fe35714610223578063669e48aa1461027e57806379ba5097146102c95780638da5cb5b146102e05780639507d39a14610337578063959ac48414610378578063be1c766b146103a5578063d4ee1d90146103d0578063dd1b613714610427578063f2fde38b1461045e575b600080fd5b3480156100ec57600080fd5b5061010b600480360381019080803590602001909291905050506104a1565b6040518082815260200191505060405180910390f35b34801561012d57600080fd5b506101366104c1565b604051808215151515815260200191505060405180910390f35b34801561015c57600080fd5b5061018560048036038101908080359060200190929190803590602001909291905050506104d8565b005b34801561019357600080fd5b506101c8600480360381019080803573ffffffffffffffffffffffffffffffffffffffff169060200190929190505050610588565b604051808215151515815260200191505060405180910390f35b3480156101ee57600080fd5b506102216004803603810190808035906020019092919080359060200190929190803590602001909291905050506105de565b005b34801561022f57600080fd5b5061027c600480360381019080803573ffffffffffffffffffffffffffffffffffffffff16906020019092919080351515906020019092919080351515906020019092919050505061068f565b005b34801561028a57600080fd5b506102b3600480360381019080803590602001909291908035906020019092919050505061088f565b6040518082815260200191505060405180910390f35b3480156102d557600080fd5b506102de6108c4565b005b3480156102ec57600080fd5b506102f5610acc565b604051808273ffffffffffffffffffffffffffffffffffffffff1673ffffffffffffffffffffffffffffffffffffffff16815260200191505060405180910390f35b34801561034357600080fd5b5061036260048036038101908080359060200190929190505050610af1565b6040518082815260200191505060405180910390f35b34801561038457600080fd5b506103a360048036038101908080359060200190929190505050610b25565b005b3480156103b157600080fd5b506103ba610be2565b6040518082815260200191505060405180910390f35b3480156103dc57600080fd5b506103e5610c00565b604051808273ffffffffffffffffffffffffffffffffffffffff1673ffffffffffffffffffffffffffffffffffffffff16815260200191505060405180910390f35b34801561043357600080fd5b5061045c6004803603810190808035906020019092919080359060200190929190505050610c26565b005b34801561046a57600080fd5b5061049f600480360381019080803573ffffffffffffffffffffffffffffffffffffffff169060200190929190505050610ce4565b005b600060046000838152602001908152602001600020805490509050919050565b6000600360009054906101000a900460ff16905090565b6104e133610588565b1515610555576040517f08c379a000000000000000000000000000000000000000000000000000000000815260040180806020018281038252600c8152602001807f5368617265643a2065727231000000000000000000000000000000000000000081525060200191505060405180910390fd5b80600460008081526020019081526020016000208381548110151561057657fe5b90600052602060002001819055505050565b6000600260008373ffffffffffffffffffffffffffffffffffffffff1673ffffffffffffffffffffffffffffffffffffffff16815260200190815260200160002060009054906101000a900460ff169050919050565b6105e733610588565b151561065b576040517f08c379a000000000000000000000000000000000000000000000000000000000815260040180806020018281038252600c8152602001807f5368617265643a2065727231000000000000000000000000000000000000000081525060200191505060405180910390fd5b80600460008581526020019081526020016000208381548110151561067c57fe5b9060005260206000200181905550505050565b6000809054906101000a900473ffffffffffffffffffffffffffffffffffffffff1673ffffffffffffffffffffffffffffffffffffffff163373ffffffffffffffffffffffffffffffffffffffff16141515610753576040517f08c379a000000000000000000000000000000000000000000000000000000000815260040180806020018281038252600b8152602001807f4f776e65643a206572723100000000000000000000000000000000000000000081525060200191505060405180910390fd5b60001515600360009054906101000a900460ff16151514151561077557600080fd5b8273ffffffffffffffffffffffffffffffffffffffff163373ffffffffffffffffffffffffffffffffffffffff1614151515610819576040517f08c379a000000000000000000000000000000000000000000000000000000000815260040180806020018281038252600c8152602001807f5368617265643a2065727232000000000000000000000000000000000000000081525060200191505060405180910390fd5b80600360006101000a81548160ff02191690831515021790555081600260008573ffffffffffffffffffffffffffffffffffffffff1673ffffffffffffffffffffffffffffffffffffffff16815260200190815260200160002060006101000a81548160ff021916908315150217905550505050565b600060046000848152602001908152602001600020828154811015156108b157fe5b9060005260206000200154905092915050565b600160009054906101000a900473ffffffffffffffffffffffffffffffffffffffff1673ffffffffffffffffffffffffffffffffffffffff163373ffffffffffffffffffffffffffffffffffffffff16141515610989576040517f08c379a000000000000000000000000000000000000000000000000000000000815260040180806020018281038252600b8152602001807f4f776e65643a206572723200000000000000000000000000000000000000000081525060200191505060405180910390fd5b600160009054906101000a900473ffffffffffffffffffffffffffffffffffffffff1673ffffffffffffffffffffffffffffffffffffffff166000809054906101000a900473ffffffffffffffffffffffffffffffffffffffff1673ffffffffffffffffffffffffffffffffffffffff167f8be0079c531659141344cd1fd0a4f28419497f9722a3daafe3b4186f6b6457e060405160405180910390a3600160009054906101000a900473ffffffffffffffffffffffffffffffffffffffff166000806101000a81548173ffffffffffffffffffffffffffffffffffffffff021916908373ffffffffffffffffffffffffffffffffffffffff1602179055506000600160006101000a81548173ffffffffffffffffffffffffffffffffffffffff021916908373ffffffffffffffffffffffffffffffffffffffff160217905550565b6000809054906101000a900473ffffffffffffffffffffffffffffffffffffffff1681565b60006004600080815260200190815260200160002082815481101515610b1357fe5b90600052602060002001549050919050565b610b2e33610588565b1515610ba2576040517f08c379a000000000000000000000000000000000000000000000000000000000815260040180806020018281038252600c8152602001807f5368617265643a2065727231000000000000000000000000000000000000000081525060200191505060405180910390fd5b6004600080815260200190815260200160002081908060018154018082558091505090600182039060005260206000200160009091929091909150555050565b60006004600080815260200190815260200160002080549050905090565b600160009054906101000a900473ffffffffffffffffffffffffffffffffffffffff1681565b610c2f33610588565b1515610ca3576040517f08c379a000000000000000000000000000000000000000000000000000000000815260040180806020018281038252600c8152602001807f5368617265643a2065727231000000000000000000000000000000000000000081525060200191505060405180910390fd5b600460008381526020019081526020016000208190806001815401808255809150509060018203906000526020600020016000909192909190915055505050565b6000809054906101000a900473ffffffffffffffffffffffffffffffffffffffff1673ffffffffffffffffffffffffffffffffffffffff163373ffffffffffffffffffffffffffffffffffffffff16141515610da8576040517f08c379a000000000000000000000000000000000000000000000000000000000815260040180806020018281038252600b8152602001807f4f776e65643a206572723100000000000000000000000000000000000000000081525060200191505060405180910390fd5b80600160006101000a81548173ffffffffffffffffffffffffffffffffffffffff021916908373ffffffffffffffffffffffffffffffffffffffff160217905550505600a165627a7a723058208acd137fc0921957eba40a0ebd4380a4b80a1a15f8388eed0476ac761e003c210029",
  "source": "pragma solidity ^ 0.4.25;\r\n\r\nimport './Interfaces.sol';\r\n\r\ncontract Owned is IOwned {\r\n    address public owner;\r\n    address public newOwner;\r\n\r\n    event OwnershipTransferred(address indexed _from, address indexed _to);\r\n\r\n    constructor() public {\r\n        owner = msg.sender;\r\n    }\r\n\r\n    modifier __onlyOwner {\r\n        require(msg.sender == owner, \"Owned: err1\");\r\n        _;\r\n    }\r\n\r\n    function transferOwnership(address _newOwner) __onlyOwner public {\r\n        newOwner = _newOwner;\r\n    }\r\n\r\n    function acceptOwnership() public {\r\n        require(msg.sender == newOwner, \"Owned: err2\");\r\n        emit OwnershipTransferred(owner, newOwner);\r\n        owner = newOwner;\r\n        newOwner = address(0);\r\n    }\r\n}\r\n\r\ncontract HasAdminController is IHasAdminController, Owned {\r\n  \r\n    address adminAddress;\r\n\r\n    modifier __onlyAdmin {\r\n        require(msg.sender == adminAddress);\r\n        _;\r\n    }\r\n\r\n    function setAdminAddress(address _adminAddress) __onlyOwner public {\r\n        adminAddress = _adminAddress;\r\n    }\r\n\r\n}\r\n\r\ncontract UsingWildaloERC721 is IUsingWildaloERC721, Owned {\r\n    IWildaloERC721 nft;\r\n\r\n    function setWildaloERC721Contract(address _address) __onlyOwner public {\r\n        nft = IWildaloERC721(_address);\r\n    }\r\n}\r\n\r\ncontract UsingSettings is IUsingSettings, Owned {\r\n    ISettings Settings;\r\n    modifier __notPaused {\r\n        bool isPaused = Settings.getPaused();\r\n      require(false == isPaused);\r\n      _;\r\n    }\r\n\r\n    modifier __onlySystemUser {\r\n        address systemUser = Settings.getSystemUser();\r\n      require(msg.sender == systemUser);\r\n      _;\r\n    }\r\n\r\n    function setSettingsContract(address _address) __onlyOwner public {\r\n        Settings = ISettings(_address);\r\n    }\r\n}\r\n\r\ncontract UsingCardBase is IUsingCardBase, Owned {\r\n    ICardBase CardBase;\r\n\r\n    function setCardBaseContract(address _address) __onlyOwner public {\r\n        CardBase = ICardBase(_address);\r\n    }\r\n}\r\n\r\ncontract UsingCard is IUsingCard, Owned {\r\n    ICard Card;\r\n\r\n    function setCardContract(address _address) __onlyOwner public {\r\n        Card = ICard(_address);\r\n    }\r\n}\r\n\r\ncontract UsingCardPackage is IUsingCardPackage, Owned {\r\n    ICardPackage CardPackage;\r\n\r\n    function setCardPackageContract(address _address) __onlyOwner public {\r\n        CardPackage = ICardPackage(_address);\r\n    }\r\n}\r\n\r\ncontract UsingAuction is IUsingAuction, Owned {\r\n    IAuction Auction;\r\n\r\n    function setAuctionContract(address _address) __onlyOwner public {\r\n        Auction = IAuction(_address);\r\n    }\r\n}\r\n\r\ncontract UsingRepository is IUsingRepository, Owned {\r\n    IRepository Repository;\r\n\r\n    function setRepositoryContract(address _address) __onlyOwner public {\r\n        Repository = IRepository(_address);\r\n    }\r\n}\r\n\r\ncontract Shared is IShared, Owned {\r\n\r\n    mapping(address => bool) sharedWith;\r\n    bool linked;\r\n    modifier __onlyShared {\r\n        require(isSharedWith(msg.sender), \"Shared: err1\");\r\n        _;\r\n    }\r\n\r\n    constructor() public {\r\n        sharedWith[msg.sender] = true;\r\n    }\r\n\r\n    function setSharingWith(address _address, bool _isShared, bool _linked) __onlyOwner public {\r\n        require(linked == false);\r\n        require(msg.sender != _address, \"Shared: err2\");\r\n\r\n        linked = _linked;\r\n        sharedWith[_address] = _isShared;\r\n    }\r\n\r\n    function isSharedWith(address _address) public view returns(bool) {\r\n        return sharedWith[_address];\r\n    }\r\n\r\n    //Sadece ilgili contract'a bagli ve degistirilemez.\r\n    function isLinked() public view returns(bool) {\r\n        return linked;\r\n    }\r\n\r\n}\r\n\r\n\r\ncontract SharedUint256 is ISharedUint256, Shared {\r\n\r\n    mapping(uint256 => mapping(uint256 => uint256)) data;\r\n\r\n    function get(uint256 _id) public view returns(uint256) {\r\n        return data[0][_id];\r\n    }\r\n\r\n    function set(uint256 _id, uint256 _data) __onlyShared public {\r\n        data[0][_id] = _data;\r\n    }\r\n\r\n    function get(uint256 _targetData, uint256 _id) public view returns(uint256) {\r\n        return data[_targetData][_id];\r\n    }\r\n\r\n    function set(uint256 _targetData, uint256 _id, uint256 _data) __onlyShared public {\r\n        data[_targetData][_id] = _data;\r\n    }\r\n\r\n}\r\n\r\ncontract SharedUint256ByAddress is ISharedUint256ByAddress, Shared {\r\n\r\n    mapping(uint256 => mapping(address => uint256)) data;\r\n\r\n    function get(address _address) public view returns(uint256) {\r\n        return data[0][_address];\r\n    }\r\n\r\n    function set(address _address, uint256 _data) __onlyShared public {\r\n        data[0][_address] = _data;\r\n    }\r\n\r\n    function get(uint256 _targetData, address _address) public view returns(uint256) {\r\n        return data[_targetData][_address];\r\n    }\r\n\r\n    function set(uint256 _targetData, address _address, uint256 _data) __onlyShared public {\r\n        data[_targetData][_address] = _data;\r\n    }\r\n\r\n}\r\n\r\n\r\ncontract SharedArrayUint256 is ISharedArrayUint256, Shared {\r\n\r\n    mapping(uint256 => uint256[]) data;\r\n\r\n    function get(uint256 _index) public view returns(uint256) {\r\n        return data[0][_index];\r\n    }\r\n\r\n    function set(uint256 _index, uint256 _data) __onlyShared public {\r\n        data[0][_index] = _data;\r\n    }\r\n\r\n    function get(uint256 _targetData, uint256 _index) public view returns(uint256) {\r\n        return data[_targetData][_index];\r\n    }\r\n\r\n    function set(uint256 _targetData, uint256 _index, uint256 _data) __onlyShared public {\r\n        data[_targetData][_index] = _data;\r\n    }\r\n\r\n    function push(uint256 _data) __onlyShared public {\r\n        data[0].push(_data);\r\n    }\r\n\r\n    function push(uint256 _targetData, uint256 _data) __onlyShared public {\r\n        data[_targetData].push(_data);\r\n    }\r\n\r\n    function getLength() public view returns(uint256) {\r\n        return data[0].length;\r\n    }\r\n\r\n    function getLength(uint256 _targetData) public view returns(uint256) {\r\n        return data[_targetData].length;\r\n    }\r\n\r\n}\r\n",
  "sourcePath": "C:\\wildalo\\wildalo-contract-dev\\contracts\\Helpers.sol",
  "compiler": {
    "name": "solc",
    "version": "0.4.25+commit.59dbf8f1.Emscripten.clang"
  },
  "schemaVersion": "3.4.5",
  "updatedAt": "2022-07-03T12:50:41.999Z",
  "devdoc": {
    "methods": {}
  },
  "userdoc": {
    "methods": {}
  }
}